{
  "_format": "hh-sol-artifact-1",
  "contractName": "CreatePatterns",
  "sourceName": "contracts/CreatePatterns.sol",
  "abi": [
    {
      "anonymous": false,
      "inputs": [
        {
          "indexed": true,
          "internalType": "address",
          "name": "owner",
          "type": "address"
        },
        {
          "indexed": true,
          "internalType": "address",
          "name": "operator",
          "type": "address"
        },
        {
          "indexed": true,
          "internalType": "uint256",
          "name": "tokenId",
          "type": "uint256"
        }
      ],
      "name": "Approval",
      "type": "event"
    },
    {
      "anonymous": false,
      "inputs": [
        {
          "indexed": true,
          "internalType": "address",
          "name": "owner",
          "type": "address"
        },
        {
          "indexed": true,
          "internalType": "address",
          "name": "operator",
          "type": "address"
        },
        {
          "indexed": false,
          "internalType": "bool",
          "name": "approved",
          "type": "bool"
        }
      ],
      "name": "ApprovalForAll",
      "type": "event"
    },
    {
      "anonymous": false,
      "inputs": [
        {
          "indexed": true,
          "internalType": "address",
          "name": "previousOwner",
          "type": "address"
        },
        {
          "indexed": true,
          "internalType": "address",
          "name": "newOwner",
          "type": "address"
        }
      ],
      "name": "OwnershipTransferred",
      "type": "event"
    },
    {
      "anonymous": false,
      "inputs": [
        {
          "indexed": false,
          "internalType": "address",
          "name": "account",
          "type": "address"
        }
      ],
      "name": "Paused",
      "type": "event"
    },
    {
      "anonymous": false,
      "inputs": [
        {
          "indexed": true,
          "internalType": "bytes32",
          "name": "role",
          "type": "bytes32"
        },
        {
          "indexed": true,
          "internalType": "bytes32",
          "name": "previousAdminRole",
          "type": "bytes32"
        },
        {
          "indexed": true,
          "internalType": "bytes32",
          "name": "newAdminRole",
          "type": "bytes32"
        }
      ],
      "name": "RoleAdminChanged",
      "type": "event"
    },
    {
      "anonymous": false,
      "inputs": [
        {
          "indexed": true,
          "internalType": "bytes32",
          "name": "role",
          "type": "bytes32"
        },
        {
          "indexed": true,
          "internalType": "address",
          "name": "account",
          "type": "address"
        },
        {
          "indexed": true,
          "internalType": "address",
          "name": "sender",
          "type": "address"
        }
      ],
      "name": "RoleGranted",
      "type": "event"
    },
    {
      "anonymous": false,
      "inputs": [
        {
          "indexed": true,
          "internalType": "bytes32",
          "name": "role",
          "type": "bytes32"
        },
        {
          "indexed": true,
          "internalType": "address",
          "name": "account",
          "type": "address"
        },
        {
          "indexed": true,
          "internalType": "address",
          "name": "sender",
          "type": "address"
        }
      ],
      "name": "RoleRevoked",
      "type": "event"
    },
    {
      "anonymous": false,
      "inputs": [
        {
          "indexed": false,
          "internalType": "uint256",
          "name": "tokenId",
          "type": "uint256"
        },
        {
          "components": [
            {
              "internalType": "address payable",
              "name": "account",
              "type": "address"
            },
            {
              "internalType": "uint96",
              "name": "value",
              "type": "uint96"
            }
          ],
          "indexed": false,
          "internalType": "struct LibPart.Part[]",
          "name": "royalties",
          "type": "tuple[]"
        }
      ],
      "name": "RoyaltiesSet",
      "type": "event"
    },
    {
      "anonymous": false,
      "inputs": [
        {
          "indexed": true,
          "internalType": "uint256",
          "name": "offChainId",
          "type": "uint256"
        },
        {
          "indexed": true,
          "internalType": "uint256",
          "name": "tokenId",
          "type": "uint256"
        },
        {
          "indexed": false,
          "internalType": "address",
          "name": "buyer",
          "type": "address"
        },
        {
          "indexed": false,
          "internalType": "uint256",
          "name": "price",
          "type": "uint256"
        }
      ],
      "name": "TokenPurchase",
      "type": "event"
    },
    {
      "anonymous": false,
      "inputs": [
        {
          "indexed": true,
          "internalType": "address",
          "name": "from",
          "type": "address"
        },
        {
          "indexed": true,
          "internalType": "address",
          "name": "to",
          "type": "address"
        },
        {
          "indexed": true,
          "internalType": "uint256",
          "name": "tokenId",
          "type": "uint256"
        }
      ],
      "name": "Transfer",
      "type": "event"
    },
    {
      "anonymous": false,
      "inputs": [
        {
          "indexed": false,
          "internalType": "address",
          "name": "account",
          "type": "address"
        }
      ],
      "name": "Unpaused",
      "type": "event"
    },
    {
      "inputs": [
        {
          "internalType": "address",
          "name": "operator",
          "type": "address"
        },
        {
          "internalType": "uint256",
          "name": "tokenId",
          "type": "uint256"
        }
      ],
      "name": "approve",
      "outputs": [],
      "stateMutability": "payable",
      "type": "function"
    },
    {
      "inputs": [
        {
          "internalType": "address",
          "name": "account",
          "type": "address"
        }
      ],
      "name": "balanceOf",
      "outputs": [
        {
          "internalType": "uint256",
          "name": "",
          "type": "uint256"
        }
      ],
      "stateMutability": "view",
      "type": "function"
    },
    {
      "inputs": [
        {
          "internalType": "uint256",
          "name": "tokenId",
          "type": "uint256"
        }
      ],
      "name": "burn",
      "outputs": [],
      "stateMutability": "nonpayable",
      "type": "function"
    },
    {
      "inputs": [
        {
          "internalType": "uint256",
          "name": "tokenId",
          "type": "uint256"
        }
      ],
      "name": "getApproved",
      "outputs": [
        {
          "internalType": "address",
          "name": "",
          "type": "address"
        }
      ],
      "stateMutability": "view",
      "type": "function"
    },
    {
      "inputs": [
        {
          "internalType": "uint256",
          "name": "id",
          "type": "uint256"
        }
      ],
      "name": "getRaribleV2Royalties",
      "outputs": [
        {
          "components": [
            {
              "internalType": "address payable",
              "name": "account",
              "type": "address"
            },
            {
              "internalType": "uint96",
              "name": "value",
              "type": "uint96"
            }
          ],
          "internalType": "struct LibPart.Part[]",
          "name": "",
          "type": "tuple[]"
        }
      ],
      "stateMutability": "view",
      "type": "function"
    },
    {
      "inputs": [
        {
          "internalType": "bytes32",
          "name": "role",
          "type": "bytes32"
        }
      ],
      "name": "getRoleAdmin",
      "outputs": [
        {
          "internalType": "bytes32",
          "name": "",
          "type": "bytes32"
        }
      ],
      "stateMutability": "view",
      "type": "function"
    },
    {
      "inputs": [
        {
          "internalType": "bytes32",
          "name": "role",
          "type": "bytes32"
        },
        {
          "internalType": "uint256",
          "name": "index",
          "type": "uint256"
        }
      ],
      "name": "getRoleMember",
      "outputs": [
        {
          "internalType": "address",
          "name": "",
          "type": "address"
        }
      ],
      "stateMutability": "view",
      "type": "function"
    },
    {
      "inputs": [
        {
          "internalType": "bytes32",
          "name": "role",
          "type": "bytes32"
        }
      ],
      "name": "getRoleMemberCount",
      "outputs": [
        {
          "internalType": "uint256",
          "name": "",
          "type": "uint256"
        }
      ],
      "stateMutability": "view",
      "type": "function"
    },
    {
      "inputs": [
        {
          "internalType": "bytes32",
          "name": "role",
          "type": "bytes32"
        },
        {
          "internalType": "address",
          "name": "account",
          "type": "address"
        }
      ],
      "name": "grantRole",
      "outputs": [],
      "stateMutability": "nonpayable",
      "type": "function"
    },
    {
      "inputs": [
        {
          "internalType": "bytes32",
          "name": "role",
          "type": "bytes32"
        },
        {
          "internalType": "address",
          "name": "account",
          "type": "address"
        }
      ],
      "name": "hasRole",
      "outputs": [
        {
          "internalType": "bool",
          "name": "",
          "type": "bool"
        }
      ],
      "stateMutability": "view",
      "type": "function"
    },
    {
      "inputs": [
        {
          "internalType": "address",
          "name": "account",
          "type": "address"
        },
        {
          "internalType": "address",
          "name": "operator",
          "type": "address"
        }
      ],
      "name": "isApprovedForAll",
      "outputs": [
        {
          "internalType": "bool",
          "name": "",
          "type": "bool"
        }
      ],
      "stateMutability": "view",
      "type": "function"
    },
    {
      "inputs": [
        {
          "internalType": "address",
          "name": "to",
          "type": "address"
        },
        {
          "components": [
            {
              "internalType": "uint256",
              "name": "tokenId",
              "type": "uint256"
            },
            {
              "internalType": "string",
              "name": "tokenURI",
              "type": "string"
            },
            {
              "internalType": "address",
              "name": "creator",
              "type": "address"
            },
            {
              "internalType": "uint256",
              "name": "price",
              "type": "uint256"
            },
            {
              "internalType": "uint256",
              "name": "expiresAt",
              "type": "uint256"
            },
            {
              "internalType": "bytes",
              "name": "signature",
              "type": "bytes"
            }
          ],
          "internalType": "struct LibPatterns.CreatorsPatternsMetadata",
          "name": "metadata",
          "type": "tuple"
        }
      ],
      "name": "mint",
      "outputs": [],
      "stateMutability": "payable",
      "type": "function"
    },
    {
      "inputs": [],
      "name": "name",
      "outputs": [
        {
          "internalType": "string",
          "name": "",
          "type": "string"
        }
      ],
      "stateMutability": "view",
      "type": "function"
    },
    {
      "inputs": [],
      "name": "owner",
      "outputs": [
        {
          "internalType": "address",
          "name": "",
          "type": "address"
        }
      ],
      "stateMutability": "view",
      "type": "function"
    },
    {
      "inputs": [
        {
          "internalType": "uint256",
          "name": "tokenId",
          "type": "uint256"
        }
      ],
      "name": "ownerOf",
      "outputs": [
        {
          "internalType": "address",
          "name": "",
          "type": "address"
        }
      ],
      "stateMutability": "view",
      "type": "function"
    },
    {
      "inputs": [],
      "name": "pause",
      "outputs": [],
      "stateMutability": "nonpayable",
      "type": "function"
    },
    {
      "inputs": [],
      "name": "paused",
      "outputs": [
        {
          "internalType": "bool",
          "name": "",
          "type": "bool"
        }
      ],
      "stateMutability": "view",
      "type": "function"
    },
    {
      "inputs": [
        {
          "internalType": "bytes32",
          "name": "role",
          "type": "bytes32"
        },
        {
          "internalType": "address",
          "name": "account",
          "type": "address"
        }
      ],
      "name": "renounceRole",
      "outputs": [],
      "stateMutability": "nonpayable",
      "type": "function"
    },
    {
      "inputs": [
        {
          "internalType": "bytes32",
          "name": "role",
          "type": "bytes32"
        },
        {
          "internalType": "address",
          "name": "account",
          "type": "address"
        }
      ],
      "name": "revokeRole",
      "outputs": [],
      "stateMutability": "nonpayable",
      "type": "function"
    },
    {
      "inputs": [
        {
          "internalType": "uint256",
          "name": "_tokenId",
          "type": "uint256"
        },
        {
          "internalType": "uint256",
          "name": "_salePrice",
          "type": "uint256"
        }
      ],
      "name": "royaltyInfo",
      "outputs": [
        {
          "internalType": "address",
          "name": "receiver",
          "type": "address"
        },
        {
          "internalType": "uint256",
          "name": "royaltyAmount",
          "type": "uint256"
        }
      ],
      "stateMutability": "view",
      "type": "function"
    },
    {
      "inputs": [
        {
          "internalType": "address",
          "name": "from",
          "type": "address"
        },
        {
          "internalType": "address",
          "name": "to",
          "type": "address"
        },
        {
          "internalType": "uint256",
          "name": "tokenId",
          "type": "uint256"
        }
      ],
      "name": "safeTransferFrom",
      "outputs": [],
      "stateMutability": "payable",
      "type": "function"
    },
    {
      "inputs": [
        {
          "internalType": "address",
          "name": "from",
          "type": "address"
        },
        {
          "internalType": "address",
          "name": "to",
          "type": "address"
        },
        {
          "internalType": "uint256",
          "name": "tokenId",
          "type": "uint256"
        },
        {
          "internalType": "bytes",
          "name": "data",
          "type": "bytes"
        }
      ],
      "name": "safeTransferFrom",
      "outputs": [],
      "stateMutability": "payable",
      "type": "function"
    },
    {
      "inputs": [
        {
          "internalType": "address",
          "name": "operator",
          "type": "address"
        },
        {
          "internalType": "bool",
          "name": "status",
          "type": "bool"
        }
      ],
      "name": "setApprovalForAll",
      "outputs": [],
      "stateMutability": "nonpayable",
      "type": "function"
    },
    {
      "inputs": [
        {
          "internalType": "string",
          "name": "baseURI_",
          "type": "string"
        }
      ],
      "name": "setBaseURI",
      "outputs": [],
      "stateMutability": "nonpayable",
      "type": "function"
    },
    {
      "inputs": [
        {
          "internalType": "uint256",
          "name": "_tokenId",
          "type": "uint256"
        },
        {
          "internalType": "address payable",
          "name": "_royaltiesReceipientAddress",
          "type": "address"
        },
        {
          "internalType": "uint96",
          "name": "_percentageBasisPoints",
          "type": "uint96"
        }
      ],
      "name": "setRoyalties",
      "outputs": [],
      "stateMutability": "nonpayable",
      "type": "function"
    },
    {
      "inputs": [
        {
          "internalType": "uint256",
          "name": "tokenId",
          "type": "uint256"
        },
        {
          "internalType": "string",
          "name": "tokenURI",
          "type": "string"
        }
      ],
      "name": "setTokenURI",
      "outputs": [],
      "stateMutability": "nonpayable",
      "type": "function"
    },
    {
      "inputs": [
        {
          "internalType": "bytes4",
          "name": "interfaceId",
          "type": "bytes4"
        }
      ],
      "name": "supportsInterface",
      "outputs": [
        {
          "internalType": "bool",
          "name": "",
          "type": "bool"
        }
      ],
      "stateMutability": "view",
      "type": "function"
    },
    {
      "inputs": [],
      "name": "symbol",
      "outputs": [
        {
          "internalType": "string",
          "name": "",
          "type": "string"
        }
      ],
      "stateMutability": "view",
      "type": "function"
    },
    {
      "inputs": [
        {
          "internalType": "uint256",
          "name": "index",
          "type": "uint256"
        }
      ],
      "name": "tokenByIndex",
      "outputs": [
        {
          "internalType": "uint256",
          "name": "",
          "type": "uint256"
        }
      ],
      "stateMutability": "view",
      "type": "function"
    },
    {
      "inputs": [
        {
          "internalType": "address",
          "name": "owner",
          "type": "address"
        },
        {
          "internalType": "uint256",
          "name": "index",
          "type": "uint256"
        }
      ],
      "name": "tokenOfOwnerByIndex",
      "outputs": [
        {
          "internalType": "uint256",
          "name": "",
          "type": "uint256"
        }
      ],
      "stateMutability": "view",
      "type": "function"
    },
    {
      "inputs": [
        {
          "internalType": "uint256",
          "name": "tokenId",
          "type": "uint256"
        }
      ],
      "name": "tokenURI",
      "outputs": [
        {
          "internalType": "string",
          "name": "",
          "type": "string"
        }
      ],
      "stateMutability": "view",
      "type": "function"
    },
    {
      "inputs": [],
      "name": "totalSupply",
      "outputs": [
        {
          "internalType": "uint256",
          "name": "",
          "type": "uint256"
        }
      ],
      "stateMutability": "view",
      "type": "function"
    },
    {
      "inputs": [
        {
          "internalType": "address",
          "name": "from",
          "type": "address"
        },
        {
          "internalType": "address",
          "name": "to",
          "type": "address"
        },
        {
          "internalType": "uint256",
          "name": "tokenId",
          "type": "uint256"
        }
      ],
      "name": "transferFrom",
      "outputs": [],
      "stateMutability": "payable",
      "type": "function"
    },
    {
      "inputs": [
        {
          "internalType": "address",
          "name": "account",
          "type": "address"
        }
      ],
      "name": "transferOwnership",
      "outputs": [],
      "stateMutability": "nonpayable",
      "type": "function"
    },
    {
      "inputs": [],
      "name": "unpause",
      "outputs": [],
      "stateMutability": "nonpayable",
      "type": "function"
    }
  ],
  "bytecode": "0x608060405234801561001057600080fd5b506143cf806100206000396000f3fe6080604052600436106102045760003560e01c806355f804b31161011857806395d89b41116100a0578063ca15c8731161006f578063ca15c873146105ca578063cad96cca146105ea578063d547741f14610617578063e985e9c514610637578063f2fde38b1461065757600080fd5b806395d89b4114610562578063a22cb46514610577578063b88d4fde14610597578063c87b56dd146105aa57600080fd5b806370a08231116100e757806370a08231146104c25780638456cb59146104e25780638da5cb5b146104f75780639010d07c1461052257806391d148541461054257600080fd5b806355f804b31461044a57806357687b2b1461046a5780635c975abb1461047d5780636352211e146104a257600080fd5b8063248a9ca31161019b57806336568abe1161016a57806336568abe146103c25780633f4ba83a146103e257806342842e0e146103f757806342966c681461040a5780634f6ccce71461042a57600080fd5b8063248a9ca3146103235780632a55205a146103435780632f2ff15d146103825780632f745c59146103a257600080fd5b8063143094db116101d7578063143094db146102ad578063162094c4146102cd57806318160ddd146102ed57806323b872dd1461031057600080fd5b806301ffc9a71461020957806306fdde031461023e578063081812fc14610260578063095ea7b314610298575b600080fd5b34801561021557600080fd5b50610229610224366004613c70565b610677565b60405190151581526020015b60405180910390f35b34801561024a57600080fd5b506102536106ba565b6040516102359190613f31565b34801561026c57600080fd5b5061028061027b366004613c13565b610759565b6040516001600160a01b039091168152602001610235565b6102ab6102a6366004613be8565b610764565b005b3480156102b957600080fd5b506102ab6102c8366004613cdb565b61088a565b3480156102d957600080fd5b506102ab6102e8366004613d27565b6108cc565b3480156102f957600080fd5b50610302610a97565b604051908152602001610235565b6102ab61031e366004613ac4565b610aa6565b34801561032f57600080fd5b5061030261033e366004613c13565b610ae3565b34801561034f57600080fd5b5061036361035e366004613c4f565b610b07565b604080516001600160a01b039093168352602083019190915201610235565b34801561038e57600080fd5b506102ab61039d366004613c2b565b610c48565b3480156103ae57600080fd5b506103026103bd366004613be8565b610c65565b3480156103ce57600080fd5b506102ab6103dd366004613c2b565b610c78565b3480156103ee57600080fd5b506102ab610cf6565b6102ab610405366004613ac4565b610d8f565b34801561041657600080fd5b506102ab610425366004613c13565b610daa565b34801561043657600080fd5b50610302610445366004613c13565b610e79565b34801561045657600080fd5b506102ab610465366004613ca8565b610e84565b6102ab610478366004613b9f565b610eed565b34801561048957600080fd5b506000805160206142688339815191525460ff16610229565b3480156104ae57600080fd5b506102806104bd366004613c13565b611200565b3480156104ce57600080fd5b506103026104dd366004613a70565b61120b565b3480156104ee57600080fd5b506102ab611216565b34801561050357600080fd5b5060008051602061435a833981519152546001600160a01b0316610280565b34801561052e57600080fd5b5061028061053d366004613c4f565b6112ab565b34801561054e57600080fd5b5061022961055d366004613c2b565b6112d0565b34801561056e57600080fd5b506102536112dc565b34801561058357600080fd5b506102ab610592366004613b6e565b6112fb565b6102ab6105a5366004613b04565b6113df565b3480156105b657600080fd5b506102536105c5366004613c13565b611423565b3480156105d657600080fd5b506103026105e5366004613c13565b61164c565b3480156105f657600080fd5b5061060a610605366004613c13565b611670565b6040516102359190613f1e565b34801561062357600080fd5b506102ab610632366004613c2b565b611715565b34801561064357600080fd5b50610229610652366004613a8c565b611732565b34801561066357600080fd5b506102ab610672366004613a70565b61173e565b6001600160e01b0319811660009081527f326d0c59a7612f6a9919e2a8ee333c80ba689d8ba2634de89c85cbb04832e705602052604081205460ff165b92915050565b606060008051602061431a83398151915280546106d690614190565b80601f016020809104026020016040519081016040528092919081815260200182805461070290614190565b801561074f5780601f106107245761010080835404028352916020019161074f565b820191906000526020600020905b81548152906001019060200180831161073257829003601f168201915b5050505050905090565b60006106b4826117d6565b61076f82823461186f565b600061077a82611200565b9050806001600160a01b0316836001600160a01b031614156107ed5760405162461bcd60e51b815260206004820152602160248201527f4552433732313a20617070726f76616c20746f2063757272656e74206f776e656044820152603960f91b60648201526084015b60405180910390fd5b336001600160a01b038216148061080957506108098133611732565b61087b5760405162461bcd60e51b815260206004820152603860248201527f4552433732313a20617070726f76652063616c6c6572206973206e6f74206f7760448201527f6e6572206e6f7220617070726f76656420666f7220616c6c000000000000000060648201526084016107e4565b61088583836118d1565b505050565b60008051602061435a833981519152546001600160a01b031633146108c15760405162461bcd60e51b81526004016107e490613f44565b61088583838361195e565b7f09acf4e54214992e70883cf7dcd6957ff2c71cd9e14df4bec4383bc0d11607dc80546002141561093f5760405162461bcd60e51b815260206004820152601f60248201527f5265656e7472616e637947756172643a207265656e7472616e742063616c6c0060448201526064016107e4565b60028155338461094f8282611a28565b6109aa5760405162461bcd60e51b815260206004820152602660248201527f4372656174655061747465726e733a204f6e6c7920617070726f766564206f726044820152651037bbb732b960d11b60648201526084016107e4565b84848080601f01602080910402602001604051908101604052809392919081815260200183838082843760009201919091525050825115159150610a4a90505760405162461bcd60e51b815260206004820152602f60248201527f4372656174655061747465726e733a2073706563696669656420757269206d7560448201526e7374206265206e6f6e2d656d70747960881b60648201526084016107e4565b610a8a8787878080601f016020809104026020016040519081016040528093929190818152602001838380828437600092019190915250611af892505050565b5050600190915550505050565b6000610aa1611b24565b905090565b610ab283838334611b3d565b610abc3382611a28565b610ad85760405162461bcd60e51b81526004016107e490613f7b565b610885838383611ba5565b600081815260008051602061437a83398151915260205260408120600101546106b4565b600080807f2858d1f5380ecfc4e71d1c9f634bbcaafa6f5186664c05b776dfd6d2869a65ca6000868152602091825260408082208054825181860281018601909352808352919390929084015b82821015610ba357600084815260209081902060408051808201909152908401546001600160a01b0381168252600160a01b90046001600160601b031681830152825260019092019101610b54565b505050509050600081511115610c385780600081518110610bd457634e487b7160e01b600052603260045260246000fd5b60200260200101516000015161271082600081518110610c0457634e487b7160e01b600052603260045260246000fd5b6020026020010151602001516001600160601b031686610c24919061407e565b610c2e919061406a565b9250925050610c41565b60008092509250505b9250929050565b610c5182610ae3565b610c5b8133611d50565b6108858383611db4565b6000610c718383611de3565b9392505050565b6001600160a01b0381163314610ce85760405162461bcd60e51b815260206004820152602f60248201527f416363657373436f6e74726f6c3a2063616e206f6e6c792072656e6f756e636560448201526e103937b632b9903337b91039b2b63360891b60648201526084016107e4565b610cf28282611dfe565b5050565b610d207f65d7a28e3265b37a6474929f336521b332c1681b933f6cb9f3376673440d862a336112d0565b610d855760405162461bcd60e51b815260206004820152603060248201527f4372656174655061747465726e733a206d75737420686176652070617573657260448201526f20726f6c6520746f20756e706175736560801b60648201526084016107e4565b610d8d611e2d565b565b610885838383604051806020016040528060008152506113df565b610db43382611a28565b610e195760405162461bcd60e51b815260206004820152603060248201527f4372656174655061747465726e733a2063616c6c6572206973206e6f74206f7760448201526f1b995c881b9bdc88185c1c1c9bdd995960821b60648201526084016107e4565b610e2281611ee0565b600081815260008051602061428883398151915260205260409020805460008051602061431a8339815191529190610e5990614190565b159050610cf25760008281526003820160205260408120610cf29161390e565b60006106b482611f8c565b60008051602061435a833981519152546001600160a01b03163314610ebb5760405162461bcd60e51b81526004016107e490613f44565b8051610cf2907f99574a7094154bb123ae6ae102096f0bf9679b85a5cd1e727aaa0ae5f132e6b3906020840190613948565b336000610f01610efc846140b4565b611fa6565b90506000610f156060850160408601613a70565b90507fa3c3de65100683c4b806c37290d05de4e5d4dbaf3a040452c4e31a5b677285666001600160a01b03808316908516146110b75734856060013514610f8f5760405162461bcd60e51b815260206004820152600e60248201526d4e6f7420656e6f7567682077656960901b60448201526064016107e4565b42856080013511610fcc5760405162461bcd60e51b8152602060048201526007602482015266115e1c1a5c995960ca1b60448201526064016107e4565b6000610fdb60a0870187613fe4565b8080601f0160208091040260200160405190810160405280939291908181526020018383808284376000920191909152505060405192935050600284019161102591508390613e21565b9081526040519081900360200190205460ff16156110765760405162461bcd60e51b815260206004820152600e60248201526d105b1c9958591e481b5a5b9d195960921b60448201526064016107e4565b611081838583612047565b600182600201826040516110959190613e21565b908152604051908190036020019020805491151560ff19909216919091179055505b6110e17f9f2df0fed2c77648de5860a4cc508cd0818c85b8b8a1ab4ceeef8d981c8956a6836112d0565b61113b5760405162461bcd60e51b815260206004820152602560248201527f4372656174655061747465726e733a206d7573742068617665206d696e74657260448201526420726f6c6560d81b60648201526084016107e4565b6000611145825490565b90506111528782856120cd565b8154600101825561116681846103e861195e565b6111b1816111776020890189613fe4565b8080601f016020809104026020016040519081016040528093929190818152602001838380828437600092019190915250611af892505050565b604080516001600160a01b038916815234602082015282918835917f09570f2f74845e0a98a0485f4f85cd30e7a147d46afa813ee13440466cd5da02910160405180910390a350505050505050565b60006106b482612265565b60006106b4826122d0565b6112407f65d7a28e3265b37a6474929f336521b332c1681b933f6cb9f3376673440d862a336112d0565b6112a35760405162461bcd60e51b815260206004820152602e60248201527f4372656174655061747465726e733a206d75737420686176652070617573657260448201526d20726f6c6520746f20706175736560901b60648201526084016107e4565b610d8d61237b565b60008281526000805160206142a883398151915260205260408120610c719083612411565b6000610c71838361241d565b606060008051602061431a83398151915260010180546106d690614190565b6001600160a01b0382163314156113545760405162461bcd60e51b815260206004820152601960248201527f4552433732313a20617070726f766520746f2063616c6c65720000000000000060448201526064016107e4565b3360008181527f3c7bf052874fa81625121783266a03507bd2cd48b16e571c01a04e8dd3fb07aa602090815260408083206001600160a01b03871680855290835292819020805460ff191686151590811790915590519081529192917f17307eab39ab6107e8899845ad3d59bd9653f200f220920489ca2b5937696c31910160405180910390a35050565b6113eb84848434611b3d565b6113f53383611a28565b6114115760405162461bcd60e51b81526004016107e490613f7b565b61141d84848484612455565b50505050565b606061143f826000805160206142fa8339815191525b906124d3565b6114a35760405162461bcd60e51b815260206004820152602f60248201527f4552433732314d657461646174613a2055524920717565727920666f72206e6f60448201526e3732bc34b9ba32b73a103a37b5b2b760891b60648201526084016107e4565b600082815260008051602061428883398151915260205260408120805460008051602061431a8339815191529291906114db90614190565b80601f016020809104026020016040519081016040528092919081815260200182805461150790614190565b80156115545780601f1061152957610100808354040283529160200191611554565b820191906000526020600020905b81548152906001019060200180831161153757829003601f168201915b50505050509050600082600201805461156c90614190565b80601f016020809104026020016040519081016040528092919081815260200182805461159890614190565b80156115e55780601f106115ba576101008083540402835291602001916115e5565b820191906000526020600020905b8154815290600101906020018083116115c857829003601f168201915b505050505090508051600014156115fe57509392505050565b815115611631578082604051602001611618929190613e3d565b6040516020818303038152906040529350505050919050565b8061163b866124df565b604051602001611618929190613e3d565b60008181526000805160206142a8833981519152602052604081206106b4906125f9565b60607f2858d1f5380ecfc4e71d1c9f634bbcaafa6f5186664c05b776dfd6d2869a65ca6000838152602091825260408082208054825181860281018601909352808352919390929084015b8282101561170a57600084815260209081902060408051808201909152908401546001600160a01b0381168252600160a01b90046001600160601b0316818301528252600190920191016116bb565b505050509050919050565b61171e82610ae3565b6117288133611d50565b6108858383611dfe565b6000610c718383612603565b60008051602061435a833981519152546001600160a01b031633146117755760405162461bcd60e51b81526004016107e490613f44565b60008051602061435a83398151915280546001600160a01b0319166001600160a01b0383161790556040516001600160a01b0382169033907f8be0079c531659141344cd1fd0a4f28419497f9722a3daafe3b4186f6b6457e090600090a350565b60006000805160206142fa8339815191526117f181846124d3565b6118525760405162461bcd60e51b815260206004820152602c60248201527f4552433732313a20617070726f76656420717565727920666f72206e6f6e657860448201526b34b9ba32b73a103a37b5b2b760a11b60648201526084016107e4565b60009283526003016020525060409020546001600160a01b031690565b80156108855760405162461bcd60e51b815260206004820152602b60248201527f4552433732313a2070617961626c6520617070726f76652063616c6c73206e6f60448201526a1d081cdd5c1c1bdc9d195960aa1b60648201526084016107e4565b60008181527f3c7bf052874fa81625121783266a03507bd2cd48b16e571c01a04e8dd3fb07a96020526040902080546001600160a01b0319166001600160a01b038416908117909155819061192582612265565b6001600160a01b03167f8c5be1e5ebec7d5bd14f71427d1e84f3dd0314c0f7b2291e5b200ac8c7c3b92560405160405180910390a45050565b604080516001808252818301909252600091816020015b604080518082019091526000808252602082015281526020019060019003908161197557905050905081816000815181106119c057634e487b7160e01b600052603260045260246000fd5b6020026020010151602001906001600160601b031690816001600160601b0316815250508281600081518110611a0657634e487b7160e01b600052603260045260246000fd5b60209081029190910101516001600160a01b03909116905261141d8482612650565b6000611a42826000805160206142fa833981519152611439565b611a9a5760405162461bcd60e51b815260206004820152602360248201527f4552433732313a20717565727920666f72206e6f6e6578697374656e7420746f60448201526235b2b760e91b60648201526084016107e4565b6000611aa583612265565b9050806001600160a01b0316846001600160a01b03161480611ae05750836001600160a01b0316611ad5846117d6565b6001600160a01b0316145b80611af05750611af08185612603565b949350505050565b600082815260008051602061428883398151915260209081526040909120825161088592840190613948565b6000610aa16000805160206142fa8339815191526128c1565b8015611ba05760405162461bcd60e51b815260206004820152602c60248201527f4552433732313a2070617961626c65207472616e736665722063616c6c73206e60448201526b1bdd081cdd5c1c1bdc9d195960a21b60648201526084016107e4565b61141d565b826001600160a01b0316611bb882612265565b6001600160a01b031614611c205760405162461bcd60e51b815260206004820152602960248201527f4552433732313a207472616e73666572206f6620746f6b656e2074686174206960448201526839903737ba1037bbb760b91b60648201526084016107e4565b6001600160a01b038216611c825760405162461bcd60e51b8152602060048201526024808201527f4552433732313a207472616e7366657220746f20746865207a65726f206164646044820152637265737360e01b60648201526084016107e4565b611c8d8383836128cc565b611c986000826118d1565b6001600160a01b03831660009081527f3c7bf052874fa81625121783266a03507bd2cd48b16e571c01a04e8dd3fb07a8602052604090206000805160206142fa83398151915290611ce990836128d7565b506001600160a01b03831660009081526002820160205260409020611d0e90836128e3565b50611d1a8183856128ef565b5081836001600160a01b0316856001600160a01b031660008051602061433a83398151915260405160405180910390a450505050565b611d5a828261241d565b610cf257611d72816001600160a01b03166014612905565b611d7d836020612905565b604051602001611d8e929190613e6c565b60408051601f198184030181529082905262461bcd60e51b82526107e491600401613f31565b611dbe8282612ae7565b60008281526000805160206142a8833981519152602052604090206108859082612b5d565b6000610c716000805160206142fa8339815191528484612b72565b611e088282612b96565b60008281526000805160206142a8833981519152602052604090206108859082612c0a565b6000805160206142688339815191525460ff16611e835760405162461bcd60e51b815260206004820152601460248201527314185d5cd8589b194e881b9bdd081c185d5cd95960621b60448201526064016107e4565b600080516020614268833981519152805460ff191690557f5db9ee0a495bf2e6ff9c91a7834c1ba4fdd244a5e8aa4e537bd38aeae4b073aa611ec3612c1f565b6040516001600160a01b03909116815260200160405180910390a1565b6000611eeb82612265565b9050611ef9816000846128cc565b611f046000836118d1565b6001600160a01b03811660009081527f3c7bf052874fa81625121783266a03507bd2cd48b16e571c01a04e8dd3fb07a8602052604090206000805160206142fa83398151915290611f5590846128d7565b50611f608184612c7c565b5060405183906000906001600160a01b0385169060008051602061433a833981519152908390a4505050565b60006106b46000805160206142fa83398151915283612c88565b60007f70af5fa263b82688c14ad5c53921efa3dc05b6374bb0ed4b9d11e775f790cf87826000015183602001518051906020012084604001518560600151866080015160405160200161202a96959493929190958652602086019490945260408501929092526001600160a01b03166060840152608083015260a082015260c00190565b604051602081830303815290604052805190602001209050919050565b600061205283612c9e565b90506001600160a01b0384166120688284612cec565b6001600160a01b0316146040518060400160405280601c81526020017f7369676e617475726520766572696669636174696f6e206572726f7200000000815250906120c65760405162461bcd60e51b81526004016107e49190613f31565b5050505050565b6001600160a01b0383166121235760405162461bcd60e51b815260206004820181905260248201527f4552433732313a206d696e7420746f20746865207a65726f206164647265737360448201526064016107e4565b6000805160206142fa83398151915261213c81846124d3565b156121895760405162461bcd60e51b815260206004820152601c60248201527f4552433732313a20746f6b656e20616c7265616479206d696e7465640000000060448201526064016107e4565b612195600085856128cc565b6001600160a01b038416600090815260028201602052604090206121b990846128e3565b506121c58184866128ef565b50836001600160a01b0316826001600160a01b0316146122395760405183906001600160a01b0384169060009060008051602061433a833981519152908290a482846001600160a01b0316836001600160a01b031660008051602061433a83398151915260405160405180910390a461141d565b60405183906001600160a01b0386169060009060008051602061433a833981519152908290a450505050565b6000806122806000805160206142fa83398151915284612d10565b90506001600160a01b0381166106b45760405162461bcd60e51b815260206004820152601560248201527422a9219b99189d1034b73b30b634b21037bbb732b960591b60448201526064016107e4565b60006001600160a01b03821661233b5760405162461bcd60e51b815260206004820152602a60248201527f4552433732313a2062616c616e636520717565727920666f7220746865207a65604482015269726f206164647265737360b01b60648201526084016107e4565b6001600160a01b03821660009081527f3c7bf052874fa81625121783266a03507bd2cd48b16e571c01a04e8dd3fb07a8602052604090206106b4906125f9565b6000805160206142688339815191525460ff16156123ce5760405162461bcd60e51b815260206004820152601060248201526f14185d5cd8589b194e881c185d5cd95960821b60448201526064016107e4565b600080516020614268833981519152805460ff191660011790557f62e78cea01bee320cd4e420270b5ea74000d11b0c9f74754ebdbfc544b05a258611ec3612c1f565b6000610c718383612d1c565b600091825260008051602061437a833981519152602090815260408084206001600160a01b0393909316845291905290205460ff1690565b612460848484611ba5565b61246c84848484612db0565b61141d5760405162461bcd60e51b815260206004820152603260248201527f4552433732313a207472616e7366657220746f206e6f6e20455243373231526560448201527131b2b4bb32b91034b6b83632b6b2b73a32b960711b60648201526084016107e4565b6000610c718383612e81565b6060816125035750506040805180820190915260018152600360fc1b602082015290565b8160005b811561252d5780612517816141cb565b91506125269050600a8361406a565b9150612507565b60008167ffffffffffffffff81111561255657634e487b7160e01b600052604160045260246000fd5b6040519080825280601f01601f191660200182016040528015612580576020820181803683370190505b5090505b8415611af05761259560018361409d565b91506125a2600a866141e6565b6125ad906030614052565b60f81b8183815181106125d057634e487b7160e01b600052603260045260246000fd5b60200101906001600160f81b031916908160001a9053506125f2600a8661406a565b9450612584565b60006106b4825490565b6001600160a01b0391821660009081527f3c7bf052874fa81625121783266a03507bd2cd48b16e571c01a04e8dd3fb07aa6020908152604080832093909416825291909152205460ff1690565b6000805b82518110156128575760006001600160a01b031683828151811061268857634e487b7160e01b600052603260045260246000fd5b6020026020010151600001516001600160a01b031614156126eb5760405162461bcd60e51b815260206004820152601b60248201527f526563697069656e742073686f756c642062652070726573656e74000000000060448201526064016107e4565b82818151811061270b57634e487b7160e01b600052603260045260246000fd5b6020026020010151602001516001600160601b0316600014156127705760405162461bcd60e51b815260206004820181905260248201527f526f79616c74792076616c75652073686f756c6420626520706f73697469766560448201526064016107e4565b82818151811061279057634e487b7160e01b600052603260045260246000fd5b6020026020010151602001516001600160601b0316826127b09190614052565b60008581527f2858d1f5380ecfc4e71d1c9f634bbcaafa6f5186664c05b776dfd6d2869a65ca6020526040902084519193509084908390811061280357634e487b7160e01b600052603260045260246000fd5b6020908102919091018101518254600181018455600093845292829020815191909201516001600160601b0316600160a01b026001600160a01b03909116179101558061284f816141cb565b915050612654565b5061271081106128b75760405162461bcd60e51b815260206004820152602560248201527f526f79616c747920746f74616c2076616c75652073686f756c64206265203c20604482015264031303030360dc1b60648201526084016107e4565b6108858383612e99565b60006106b4826125f9565b610885838383612ed6565b6000610c718383612ee1565b6000610c718383612ff6565b6000611af084846001600160a01b038516613045565b6060600061291483600261407e565b61291f906002614052565b67ffffffffffffffff81111561294557634e487b7160e01b600052604160045260246000fd5b6040519080825280601f01601f19166020018201604052801561296f576020820181803683370190505b509050600360fc1b8160008151811061299857634e487b7160e01b600052603260045260246000fd5b60200101906001600160f81b031916908160001a905350600f60fb1b816001815181106129d557634e487b7160e01b600052603260045260246000fd5b60200101906001600160f81b031916908160001a90535060006129f984600261407e565b612a04906001614052565b90505b6001811115612a98576f181899199a1a9b1b9c1cb0b131b232b360811b85600f1660108110612a4657634e487b7160e01b600052603260045260246000fd5b1a60f81b828281518110612a6a57634e487b7160e01b600052603260045260246000fd5b60200101906001600160f81b031916908160001a90535060049490941c93612a9181614179565b9050612a07565b508315610c715760405162461bcd60e51b815260206004820181905260248201527f537472696e67733a20686578206c656e67746820696e73756666696369656e7460448201526064016107e4565b612af1828261241d565b610cf257600082815260008051602061437a833981519152602090815260408083206001600160a01b0385168085529252808320805460ff1916600117905551339285917f2f8788117e7eff1d82e926ec794901d17c78024a50270940304540a733656f0d9190a45050565b6000610c71836001600160a01b038416612ff6565b6001600160a01b03821660009081526002840160205260408120611af09083612411565b612ba0828261241d565b15610cf257600082815260008051602061437a833981519152602090815260408083206001600160a01b0385168085529252808320805460ff1916905551339285917ff6391f5c32d9c69d2a47ea670b442974b53935d1edc7fd64eb21e047a839171b9190a45050565b6000610c71836001600160a01b038416612ee1565b600033301415612c7657600080368080601f0160208091040260200160405190810160405280939291908181526020018383808284376000920191909152505050503601516001600160a01b03169150612c799050565b50335b90565b6000610c7183836130f4565b600080612c95848461321d565b50949350505050565b60006106b4612cab613239565b8360405161190160f01b6020820152602281018390526042810182905260009060620160405160208183030381529060405280519060200120905092915050565b6000806000612cfb85856132f2565b91509150612d088161335f565b509392505050565b6000610c718383613563565b81546000908210612d7a5760405162461bcd60e51b815260206004820152602260248201527f456e756d657261626c655365743a20696e646578206f7574206f6620626f756e604482015261647360f01b60648201526084016107e4565b826000018281548110612d9d57634e487b7160e01b600052603260045260246000fd5b9060005260206000200154905092915050565b60006001600160a01b0384163b612dc957506001611af0565b6000612e4a63150b7a0260e01b33888787604051602401612ded9493929190613ee1565b604051602081830303815290604052906001600160e01b0319166020820180516001600160e01b0383818316178352505050506040518060600160405280603281526020016142c8603291396001600160a01b0388169190613606565b9050600081806020019051810190612e629190613c8c565b6001600160e01b031916630a85bd0160e11b1492505050949350505050565b60008181526001830160205260408120541515610c71565b7f3fa96d7b6bcbfe71ef171666d84db3cf52fa2d1c8afdb1cc8e486177f208b7df8282604051612eca929190613fcb565b60405180910390a15050565b610885838383613615565b60008181526001830160205260408120548015612fec576000612f0560018361409d565b85549091506000908690612f1b9060019061409d565b81548110612f3957634e487b7160e01b600052603260045260246000fd5b9060005260206000200154905080866000018381548110612f6a57634e487b7160e01b600052603260045260246000fd5b600091825260209091200155612f81826001614052565b60008281526001880160205260409020558554869080612fb157634e487b7160e01b600052603160045260246000fd5b6001900381819060005260206000200160009055905585600101600086815260200190815260200160002060009055600193505050506106b4565b60009150506106b4565b600081815260018301602052604081205461303d575081546001818101845560008481526020808220909301849055845484825282860190935260409020919091556106b4565b5060006106b4565b6000828152600184016020526040812054806130aa575050604080518082018252838152602080820184815286546001818101895560008981528481209551600290930290950191825591519082015586548684528188019092529290912055610c71565b82856130b760018461409d565b815481106130d557634e487b7160e01b600052603260045260246000fd5b9060005260206000209060020201600101819055506000915050610c71565b60008181526001830160205260408120548015612fec57600061311860018361409d565b8554909150600090869061312e9060019061409d565b8154811061314c57634e487b7160e01b600052603260045260246000fd5b906000526020600020906002020190508086600001838154811061318057634e487b7160e01b600052603260045260246000fd5b600091825260209091208254600290920201908155600191820154908201556131aa908390614052565b8154600090815260018801602052604090205585548690806131dc57634e487b7160e01b600052603160045260246000fd5b60008281526020808220600260001990940193840201828155600190810183905592909355878152888201909252604082209190915593506106b492505050565b600080808061322c8686613647565b9097909650945050505050565b7f652b6e41b48d5fb182ea94fdf4a90b06fb0e8abbbd8f531a87702357378884fe546000907f652b6e41b48d5fb182ea94fdf4a90b06fb0e8abbbd8f531a87702357378884fd9046141561328d5754919050565b6132e88160040154826002015483600301546040805160208101859052908101839052606081018290524660808201523060a082015260009060c0016040516020818303038152906040528051906020012090509392505050565b91505090565b5090565b6000808251604114156133295760208301516040840151606085015160001a61331d878285856136f2565b94509450505050610c41565b82516040141561335357602083015160408401516133488683836137df565b935093505050610c41565b50600090506002610c41565b600081600481111561338157634e487b7160e01b600052602160045260246000fd5b141561338a5750565b60018160048111156133ac57634e487b7160e01b600052602160045260246000fd5b14156133fa5760405162461bcd60e51b815260206004820152601860248201527f45434453413a20696e76616c6964207369676e6174757265000000000000000060448201526064016107e4565b600281600481111561341c57634e487b7160e01b600052602160045260246000fd5b141561346a5760405162461bcd60e51b815260206004820152601f60248201527f45434453413a20696e76616c6964207369676e6174757265206c656e6774680060448201526064016107e4565b600381600481111561348c57634e487b7160e01b600052602160045260246000fd5b14156134e55760405162461bcd60e51b815260206004820152602260248201527f45434453413a20696e76616c6964207369676e6174757265202773272076616c604482015261756560f01b60648201526084016107e4565b600481600481111561350757634e487b7160e01b600052602160045260246000fd5b14156135605760405162461bcd60e51b815260206004820152602260248201527f45434453413a20696e76616c6964207369676e6174757265202776272076616c604482015261756560f01b60648201526084016107e4565b50565b6000818152600183016020526040812054806135c15760405162461bcd60e51b815260206004820152601e60248201527f456e756d657261626c654d61703a206e6f6e6578697374656e74206b6579000060448201526064016107e4565b836135cd60018361409d565b815481106135eb57634e487b7160e01b600052603260045260246000fd5b90600052602060002090600202016001015491505092915050565b6060611af0848460008561380e565b6001600160a01b038216610885576000818152600080516020614288833981519152602052604081206108859161390e565b8154600090819083106136a75760405162461bcd60e51b815260206004820152602260248201527f456e756d657261626c654d61703a20696e646578206f7574206f6620626f756e604482015261647360f01b60648201526084016107e4565b60008460000184815481106136cc57634e487b7160e01b600052603260045260246000fd5b906000526020600020906002020190508060000154816001015492509250509250929050565b6000807f7fffffffffffffffffffffffffffffff5d576e7357a4501ddfe92f46681b20a083111561372957506000905060036137d6565b8460ff16601b1415801561374157508460ff16601c14155b1561375257506000905060046137d6565b6040805160008082526020820180845289905260ff881692820192909252606081018690526080810185905260019060a0016020604051602081039080840390855afa1580156137a6573d6000803e3d6000fd5b5050604051601f1901519150506001600160a01b0381166137cf576000600192509250506137d6565b9150600090505b94509492505050565b6000806001600160ff1b03831660ff84901c601b01613800878288856136f2565b935093505050935093915050565b6060843b6138725760405162461bcd60e51b815260206004820152602b60248201527f416464726573735574696c733a2066756e6374696f6e2063616c6c20746f206e60448201526a1bdb8b58dbdb9d1c9858dd60aa1b60648201526084016107e4565b600080866001600160a01b0316858760405161388e9190613e21565b60006040518083038185875af1925050503d80600081146138cb576040519150601f19603f3d011682016040523d82523d6000602084013e6138d0565b606091505b509150915081156138e4579150611af09050565b8051156138f45780518082602001fd5b8360405162461bcd60e51b81526004016107e49190613f31565b50805461391a90614190565b6000825580601f1061392a575050565b601f01602090049060005260206000209081019061356091906139c4565b82805461395490614190565b90600052602060002090601f01602090048101928261397657600085556139bc565b82601f1061398f57805160ff19168380011785556139bc565b828001600101855582156139bc579182015b828111156139bc5782518255916020019190600101906139a1565b506132ee9291505b5b808211156132ee57600081556001016139c5565b80356139e48161423c565b919050565b600082601f8301126139f9578081fd5b813567ffffffffffffffff80821115613a1457613a14614226565b604051601f8301601f19908116603f01168101908282118183101715613a3c57613a3c614226565b81604052838152866020858801011115613a54578485fd5b8360208701602083013792830160200193909352509392505050565b600060208284031215613a81578081fd5b8135610c718161423c565b60008060408385031215613a9e578081fd5b8235613aa98161423c565b91506020830135613ab98161423c565b809150509250929050565b600080600060608486031215613ad8578081fd5b8335613ae38161423c565b92506020840135613af38161423c565b929592945050506040919091013590565b60008060008060808587031215613b19578081fd5b8435613b248161423c565b93506020850135613b348161423c565b925060408501359150606085013567ffffffffffffffff811115613b56578182fd5b613b62878288016139e9565b91505092959194509250565b60008060408385031215613b80578182fd5b8235613b8b8161423c565b915060208301358015158114613ab9578182fd5b60008060408385031215613bb1578182fd5b8235613bbc8161423c565b9150602083013567ffffffffffffffff811115613bd7578182fd5b830160c08186031215613ab9578182fd5b60008060408385031215613bfa578182fd5b8235613c058161423c565b946020939093013593505050565b600060208284031215613c24578081fd5b5035919050565b60008060408385031215613c3d578182fd5b823591506020830135613ab98161423c565b60008060408385031215613c61578182fd5b50508035926020909101359150565b600060208284031215613c81578081fd5b8135610c7181614251565b600060208284031215613c9d578081fd5b8151610c7181614251565b600060208284031215613cb9578081fd5b813567ffffffffffffffff811115613ccf578182fd5b611af0848285016139e9565b600080600060608486031215613cef578081fd5b833592506020840135613d018161423c565b915060408401356001600160601b0381168114613d1c578182fd5b809150509250925092565b600080600060408486031215613d3b578081fd5b83359250602084013567ffffffffffffffff80821115613d59578283fd5b818601915086601f830112613d6c578283fd5b813581811115613d7a578384fd5b876020828501011115613d8b578384fd5b6020830194508093505050509250925092565b6000815180845260208085019450808401835b83811015613dea57815180516001600160a01b031688528301516001600160601b03168388015260409096019590820190600101613db1565b509495945050505050565b60008151808452613e0d81602086016020860161414d565b601f01601f19169290920160200192915050565b60008251613e3381846020870161414d565b9190910192915050565b60008351613e4f81846020880161414d565b835190830190613e6381836020880161414d565b01949350505050565b7f416363657373436f6e74726f6c3a206163636f756e7420000000000000000000815260008351613ea481601785016020880161414d565b7001034b99036b4b9b9b4b733903937b6329607d1b6017918401918201528351613ed581602884016020880161414d565b01602801949350505050565b6001600160a01b0385811682528416602082015260408101839052608060608201819052600090613f1490830184613df5565b9695505050505050565b602081526000610c716020830184613d9e565b602081526000610c716020830184613df5565b6020808252601d908201527f4f776e61626c653a2073656e646572206d757374206265206f776e6572000000604082015260600190565b60208082526030908201527f4552433732313a207472616e736665722063616c6c6572206973206e6f74206f60408201526f1ddb995c881bdc88185c1c1c9bdd995960821b606082015260800190565b828152604060208201526000611af06040830184613d9e565b6000808335601e19843603018112613ffa578283fd5b83018035915067ffffffffffffffff821115614014578283fd5b602001915036819003821315610c4157600080fd5b60405160c0810167ffffffffffffffff8111828210171561404c5761404c614226565b60405290565b60008219821115614065576140656141fa565b500190565b60008261407957614079614210565b500490565b6000816000190483118215151615614098576140986141fa565b500290565b6000828210156140af576140af6141fa565b500390565b600060c082360312156140c5578081fd5b6140cd614029565b82358152602083013567ffffffffffffffff808211156140eb578384fd5b6140f7368387016139e9565b6020840152614108604086016139d9565b6040840152606085013560608401526080850135608084015260a0850135915080821115614134578384fd5b50614141368286016139e9565b60a08301525092915050565b60005b83811015614168578181015183820152602001614150565b8381111561141d5750506000910152565b600081614188576141886141fa565b506000190190565b600181811c908216806141a457607f821691505b602082108114156141c557634e487b7160e01b600052602260045260246000fd5b50919050565b60006000198214156141df576141df6141fa565b5060010190565b6000826141f5576141f5614210565b500690565b634e487b7160e01b600052601160045260246000fd5b634e487b7160e01b600052601260045260246000fd5b634e487b7160e01b600052604160045260246000fd5b6001600160a01b038116811461356057600080fd5b6001600160e01b03198116811461356057600080fdfebcc071db01f17b05ed4e21e0bc9844cd2f7ad7a440f8b0ef06f911f46516eefd99574a7094154bb123ae6ae102096f0bf9679b85a5cd1e727aaa0ae5f132e6b480056cf64dda58f25b3f0d01c84a1d87fa35fc7cd9e75613f98c5bce823c5fbe4552433732313a207472616e7366657220746f206e6f6e20455243373231526563656976657220696d706c656d656e7465723c7bf052874fa81625121783266a03507bd2cd48b16e571c01a04e8dd3fb07a699574a7094154bb123ae6ae102096f0bf9679b85a5cd1e727aaa0ae5f132e6b1ddf252ad1be2c89b69c2b068fc378daa952ba7f163c4a11628f55a4df523b3ef8a22373512790c48b83a1fe2efdd2888d4a917bcdc24d0adf63e60f6716804606891d55ec5f39745a8d2e578beced3b89c2702e96df8aac9e4f965508783ef2fa2646970667358221220fa9f153852fed2110b6975d13bc18783a026a97055e4ee014855162baf2ecdff64736f6c63430008040033",
  "linkReferences": {},
  "deployedLinkReferences": {}
}