{
  "_format": "hh-sol-artifact-1",
  "contractName": "CreatePatterns",
  "sourceName": "contracts/CreatePatterns.sol",
  "abi": [
    {
      "anonymous": false,
      "inputs": [
        {
          "indexed": true,
          "internalType": "address",
          "name": "owner",
          "type": "address"
        },
        {
          "indexed": true,
          "internalType": "address",
          "name": "operator",
          "type": "address"
        },
        {
          "indexed": true,
          "internalType": "uint256",
          "name": "tokenId",
          "type": "uint256"
        }
      ],
      "name": "Approval",
      "type": "event"
    },
    {
      "anonymous": false,
      "inputs": [
        {
          "indexed": true,
          "internalType": "address",
          "name": "owner",
          "type": "address"
        },
        {
          "indexed": true,
          "internalType": "address",
          "name": "operator",
          "type": "address"
        },
        {
          "indexed": false,
          "internalType": "bool",
          "name": "approved",
          "type": "bool"
        }
      ],
      "name": "ApprovalForAll",
      "type": "event"
    },
    {
      "anonymous": false,
      "inputs": [
        {
          "indexed": true,
          "internalType": "address",
          "name": "previousOwner",
          "type": "address"
        },
        {
          "indexed": true,
          "internalType": "address",
          "name": "newOwner",
          "type": "address"
        }
      ],
      "name": "OwnershipTransferred",
      "type": "event"
    },
    {
      "anonymous": false,
      "inputs": [
        {
          "indexed": false,
          "internalType": "address",
          "name": "account",
          "type": "address"
        }
      ],
      "name": "Paused",
      "type": "event"
    },
    {
      "anonymous": false,
      "inputs": [
        {
          "indexed": true,
          "internalType": "bytes32",
          "name": "role",
          "type": "bytes32"
        },
        {
          "indexed": true,
          "internalType": "bytes32",
          "name": "previousAdminRole",
          "type": "bytes32"
        },
        {
          "indexed": true,
          "internalType": "bytes32",
          "name": "newAdminRole",
          "type": "bytes32"
        }
      ],
      "name": "RoleAdminChanged",
      "type": "event"
    },
    {
      "anonymous": false,
      "inputs": [
        {
          "indexed": true,
          "internalType": "bytes32",
          "name": "role",
          "type": "bytes32"
        },
        {
          "indexed": true,
          "internalType": "address",
          "name": "account",
          "type": "address"
        },
        {
          "indexed": true,
          "internalType": "address",
          "name": "sender",
          "type": "address"
        }
      ],
      "name": "RoleGranted",
      "type": "event"
    },
    {
      "anonymous": false,
      "inputs": [
        {
          "indexed": true,
          "internalType": "bytes32",
          "name": "role",
          "type": "bytes32"
        },
        {
          "indexed": true,
          "internalType": "address",
          "name": "account",
          "type": "address"
        },
        {
          "indexed": true,
          "internalType": "address",
          "name": "sender",
          "type": "address"
        }
      ],
      "name": "RoleRevoked",
      "type": "event"
    },
    {
      "anonymous": false,
      "inputs": [
        {
          "indexed": false,
          "internalType": "uint256",
          "name": "tokenId",
          "type": "uint256"
        },
        {
          "components": [
            {
              "internalType": "address payable",
              "name": "account",
              "type": "address"
            },
            {
              "internalType": "uint96",
              "name": "value",
              "type": "uint96"
            }
          ],
          "indexed": false,
          "internalType": "struct LibPart.Part[]",
          "name": "royalties",
          "type": "tuple[]"
        }
      ],
      "name": "RoyaltiesSet",
      "type": "event"
    },
    {
      "anonymous": false,
      "inputs": [
        {
          "indexed": true,
          "internalType": "address",
          "name": "from",
          "type": "address"
        },
        {
          "indexed": true,
          "internalType": "address",
          "name": "to",
          "type": "address"
        },
        {
          "indexed": true,
          "internalType": "uint256",
          "name": "tokenId",
          "type": "uint256"
        }
      ],
      "name": "Transfer",
      "type": "event"
    },
    {
      "anonymous": false,
      "inputs": [
        {
          "indexed": false,
          "internalType": "address",
          "name": "account",
          "type": "address"
        }
      ],
      "name": "Unpaused",
      "type": "event"
    },
    {
      "inputs": [
        {
          "internalType": "address",
          "name": "operator",
          "type": "address"
        },
        {
          "internalType": "uint256",
          "name": "tokenId",
          "type": "uint256"
        }
      ],
      "name": "approve",
      "outputs": [],
      "stateMutability": "payable",
      "type": "function"
    },
    {
      "inputs": [
        {
          "internalType": "address",
          "name": "account",
          "type": "address"
        }
      ],
      "name": "balanceOf",
      "outputs": [
        {
          "internalType": "uint256",
          "name": "",
          "type": "uint256"
        }
      ],
      "stateMutability": "view",
      "type": "function"
    },
    {
      "inputs": [
        {
          "internalType": "uint256",
          "name": "tokenId",
          "type": "uint256"
        }
      ],
      "name": "burn",
      "outputs": [],
      "stateMutability": "nonpayable",
      "type": "function"
    },
    {
      "inputs": [
        {
          "internalType": "uint256",
          "name": "tokenId",
          "type": "uint256"
        }
      ],
      "name": "getApproved",
      "outputs": [
        {
          "internalType": "address",
          "name": "",
          "type": "address"
        }
      ],
      "stateMutability": "view",
      "type": "function"
    },
    {
      "inputs": [
        {
          "internalType": "uint256",
          "name": "id",
          "type": "uint256"
        }
      ],
      "name": "getRaribleV2Royalties",
      "outputs": [
        {
          "components": [
            {
              "internalType": "address payable",
              "name": "account",
              "type": "address"
            },
            {
              "internalType": "uint96",
              "name": "value",
              "type": "uint96"
            }
          ],
          "internalType": "struct LibPart.Part[]",
          "name": "",
          "type": "tuple[]"
        }
      ],
      "stateMutability": "view",
      "type": "function"
    },
    {
      "inputs": [
        {
          "internalType": "bytes32",
          "name": "role",
          "type": "bytes32"
        }
      ],
      "name": "getRoleAdmin",
      "outputs": [
        {
          "internalType": "bytes32",
          "name": "",
          "type": "bytes32"
        }
      ],
      "stateMutability": "view",
      "type": "function"
    },
    {
      "inputs": [
        {
          "internalType": "bytes32",
          "name": "role",
          "type": "bytes32"
        },
        {
          "internalType": "uint256",
          "name": "index",
          "type": "uint256"
        }
      ],
      "name": "getRoleMember",
      "outputs": [
        {
          "internalType": "address",
          "name": "",
          "type": "address"
        }
      ],
      "stateMutability": "view",
      "type": "function"
    },
    {
      "inputs": [
        {
          "internalType": "bytes32",
          "name": "role",
          "type": "bytes32"
        }
      ],
      "name": "getRoleMemberCount",
      "outputs": [
        {
          "internalType": "uint256",
          "name": "",
          "type": "uint256"
        }
      ],
      "stateMutability": "view",
      "type": "function"
    },
    {
      "inputs": [
        {
          "internalType": "bytes32",
          "name": "role",
          "type": "bytes32"
        },
        {
          "internalType": "address",
          "name": "account",
          "type": "address"
        }
      ],
      "name": "grantRole",
      "outputs": [],
      "stateMutability": "nonpayable",
      "type": "function"
    },
    {
      "inputs": [
        {
          "internalType": "bytes32",
          "name": "role",
          "type": "bytes32"
        },
        {
          "internalType": "address",
          "name": "account",
          "type": "address"
        }
      ],
      "name": "hasRole",
      "outputs": [
        {
          "internalType": "bool",
          "name": "",
          "type": "bool"
        }
      ],
      "stateMutability": "view",
      "type": "function"
    },
    {
      "inputs": [
        {
          "internalType": "address",
          "name": "account",
          "type": "address"
        },
        {
          "internalType": "address",
          "name": "operator",
          "type": "address"
        }
      ],
      "name": "isApprovedForAll",
      "outputs": [
        {
          "internalType": "bool",
          "name": "",
          "type": "bool"
        }
      ],
      "stateMutability": "view",
      "type": "function"
    },
    {
      "inputs": [
        {
          "internalType": "address",
          "name": "to",
          "type": "address"
        },
        {
          "components": [
            {
              "internalType": "string",
              "name": "tokenId",
              "type": "string"
            },
            {
              "internalType": "string",
              "name": "tokenURI",
              "type": "string"
            },
            {
              "internalType": "address",
              "name": "creator",
              "type": "address"
            },
            {
              "internalType": "uint256",
              "name": "price",
              "type": "uint256"
            },
            {
              "internalType": "uint256",
              "name": "expiresAt",
              "type": "uint256"
            },
            {
              "internalType": "bytes",
              "name": "signature",
              "type": "bytes"
            }
          ],
          "internalType": "struct LibPatterns.CreatorsPatternsMetadata",
          "name": "metadata",
          "type": "tuple"
        }
      ],
      "name": "mint",
      "outputs": [],
      "stateMutability": "payable",
      "type": "function"
    },
    {
      "inputs": [],
      "name": "name",
      "outputs": [
        {
          "internalType": "string",
          "name": "",
          "type": "string"
        }
      ],
      "stateMutability": "view",
      "type": "function"
    },
    {
      "inputs": [],
      "name": "owner",
      "outputs": [
        {
          "internalType": "address",
          "name": "",
          "type": "address"
        }
      ],
      "stateMutability": "view",
      "type": "function"
    },
    {
      "inputs": [
        {
          "internalType": "uint256",
          "name": "tokenId",
          "type": "uint256"
        }
      ],
      "name": "ownerOf",
      "outputs": [
        {
          "internalType": "address",
          "name": "",
          "type": "address"
        }
      ],
      "stateMutability": "view",
      "type": "function"
    },
    {
      "inputs": [],
      "name": "pause",
      "outputs": [],
      "stateMutability": "nonpayable",
      "type": "function"
    },
    {
      "inputs": [],
      "name": "paused",
      "outputs": [
        {
          "internalType": "bool",
          "name": "",
          "type": "bool"
        }
      ],
      "stateMutability": "view",
      "type": "function"
    },
    {
      "inputs": [
        {
          "internalType": "bytes32",
          "name": "role",
          "type": "bytes32"
        },
        {
          "internalType": "address",
          "name": "account",
          "type": "address"
        }
      ],
      "name": "renounceRole",
      "outputs": [],
      "stateMutability": "nonpayable",
      "type": "function"
    },
    {
      "inputs": [
        {
          "internalType": "bytes32",
          "name": "role",
          "type": "bytes32"
        },
        {
          "internalType": "address",
          "name": "account",
          "type": "address"
        }
      ],
      "name": "revokeRole",
      "outputs": [],
      "stateMutability": "nonpayable",
      "type": "function"
    },
    {
      "inputs": [
        {
          "internalType": "uint256",
          "name": "_tokenId",
          "type": "uint256"
        },
        {
          "internalType": "uint256",
          "name": "_salePrice",
          "type": "uint256"
        }
      ],
      "name": "royaltyInfo",
      "outputs": [
        {
          "internalType": "address",
          "name": "receiver",
          "type": "address"
        },
        {
          "internalType": "uint256",
          "name": "royaltyAmount",
          "type": "uint256"
        }
      ],
      "stateMutability": "view",
      "type": "function"
    },
    {
      "inputs": [
        {
          "internalType": "address",
          "name": "from",
          "type": "address"
        },
        {
          "internalType": "address",
          "name": "to",
          "type": "address"
        },
        {
          "internalType": "uint256",
          "name": "tokenId",
          "type": "uint256"
        }
      ],
      "name": "safeTransferFrom",
      "outputs": [],
      "stateMutability": "payable",
      "type": "function"
    },
    {
      "inputs": [
        {
          "internalType": "address",
          "name": "from",
          "type": "address"
        },
        {
          "internalType": "address",
          "name": "to",
          "type": "address"
        },
        {
          "internalType": "uint256",
          "name": "tokenId",
          "type": "uint256"
        },
        {
          "internalType": "bytes",
          "name": "data",
          "type": "bytes"
        }
      ],
      "name": "safeTransferFrom",
      "outputs": [],
      "stateMutability": "payable",
      "type": "function"
    },
    {
      "inputs": [
        {
          "internalType": "address",
          "name": "operator",
          "type": "address"
        },
        {
          "internalType": "bool",
          "name": "status",
          "type": "bool"
        }
      ],
      "name": "setApprovalForAll",
      "outputs": [],
      "stateMutability": "nonpayable",
      "type": "function"
    },
    {
      "inputs": [
        {
          "internalType": "string",
          "name": "baseURI_",
          "type": "string"
        }
      ],
      "name": "setBaseURI",
      "outputs": [],
      "stateMutability": "nonpayable",
      "type": "function"
    },
    {
      "inputs": [
        {
          "internalType": "uint256",
          "name": "_tokenId",
          "type": "uint256"
        },
        {
          "internalType": "address payable",
          "name": "_royaltiesReceipientAddress",
          "type": "address"
        },
        {
          "internalType": "uint96",
          "name": "_percentageBasisPoints",
          "type": "uint96"
        }
      ],
      "name": "setRoyalties",
      "outputs": [],
      "stateMutability": "nonpayable",
      "type": "function"
    },
    {
      "inputs": [
        {
          "internalType": "uint256",
          "name": "tokenId",
          "type": "uint256"
        },
        {
          "internalType": "string",
          "name": "tokenURI",
          "type": "string"
        }
      ],
      "name": "setTokenURI",
      "outputs": [],
      "stateMutability": "nonpayable",
      "type": "function"
    },
    {
      "inputs": [
        {
          "internalType": "bytes4",
          "name": "interfaceId",
          "type": "bytes4"
        }
      ],
      "name": "supportsInterface",
      "outputs": [
        {
          "internalType": "bool",
          "name": "",
          "type": "bool"
        }
      ],
      "stateMutability": "view",
      "type": "function"
    },
    {
      "inputs": [],
      "name": "symbol",
      "outputs": [
        {
          "internalType": "string",
          "name": "",
          "type": "string"
        }
      ],
      "stateMutability": "view",
      "type": "function"
    },
    {
      "inputs": [
        {
          "internalType": "uint256",
          "name": "index",
          "type": "uint256"
        }
      ],
      "name": "tokenByIndex",
      "outputs": [
        {
          "internalType": "uint256",
          "name": "",
          "type": "uint256"
        }
      ],
      "stateMutability": "view",
      "type": "function"
    },
    {
      "inputs": [
        {
          "internalType": "address",
          "name": "owner",
          "type": "address"
        },
        {
          "internalType": "uint256",
          "name": "index",
          "type": "uint256"
        }
      ],
      "name": "tokenOfOwnerByIndex",
      "outputs": [
        {
          "internalType": "uint256",
          "name": "",
          "type": "uint256"
        }
      ],
      "stateMutability": "view",
      "type": "function"
    },
    {
      "inputs": [
        {
          "internalType": "uint256",
          "name": "tokenId",
          "type": "uint256"
        }
      ],
      "name": "tokenURI",
      "outputs": [
        {
          "internalType": "string",
          "name": "",
          "type": "string"
        }
      ],
      "stateMutability": "view",
      "type": "function"
    },
    {
      "inputs": [],
      "name": "totalSupply",
      "outputs": [
        {
          "internalType": "uint256",
          "name": "",
          "type": "uint256"
        }
      ],
      "stateMutability": "view",
      "type": "function"
    },
    {
      "inputs": [
        {
          "internalType": "address",
          "name": "from",
          "type": "address"
        },
        {
          "internalType": "address",
          "name": "to",
          "type": "address"
        },
        {
          "internalType": "uint256",
          "name": "tokenId",
          "type": "uint256"
        }
      ],
      "name": "transferFrom",
      "outputs": [],
      "stateMutability": "payable",
      "type": "function"
    },
    {
      "inputs": [
        {
          "internalType": "address",
          "name": "account",
          "type": "address"
        }
      ],
      "name": "transferOwnership",
      "outputs": [],
      "stateMutability": "nonpayable",
      "type": "function"
    },
    {
      "inputs": [],
      "name": "unpause",
      "outputs": [],
      "stateMutability": "nonpayable",
      "type": "function"
    }
  ],
  "bytecode": "0x608060405234801561001057600080fd5b506143c5806100206000396000f3fe6080604052600436106102045760003560e01c806355f804b31161011857806395d89b41116100a0578063ca15c8731161006f578063ca15c873146105ca578063cad96cca146105ea578063d547741f14610617578063e985e9c514610637578063f2fde38b1461065757600080fd5b806395d89b4114610562578063a22cb46514610577578063b88d4fde14610597578063c87b56dd146105aa57600080fd5b80638456cb59116100e75780638456cb59146104cf5780638da5cb5b146104e45780639010d07c1461050f57806391d148541461052f57806392bee7561461054f57600080fd5b806355f804b31461044a5780635c975abb1461046a5780636352211e1461048f57806370a08231146104af57600080fd5b8063248a9ca31161019b57806336568abe1161016a57806336568abe146103c25780633f4ba83a146103e257806342842e0e146103f757806342966c681461040a5780634f6ccce71461042a57600080fd5b8063248a9ca3146103235780632a55205a146103435780632f2ff15d146103825780632f745c59146103a257600080fd5b8063143094db116101d7578063143094db146102ad578063162094c4146102cd57806318160ddd146102ed57806323b872dd1461031057600080fd5b806301ffc9a71461020957806306fdde031461023e578063081812fc14610260578063095ea7b314610298575b600080fd5b34801561021557600080fd5b50610229610224366004613c4c565b610677565b60405190151581526020015b60405180910390f35b34801561024a57600080fd5b506102536106ba565b6040516102359190613f0d565b34801561026c57600080fd5b5061028061027b366004613bef565b610759565b6040516001600160a01b039091168152602001610235565b6102ab6102a6366004613bc4565b610764565b005b3480156102b957600080fd5b506102ab6102c8366004613cb7565b61088a565b3480156102d957600080fd5b506102ab6102e8366004613d03565b6108cc565b3480156102f957600080fd5b50610302610a97565b604051908152602001610235565b6102ab61031e366004613aa0565b610aa6565b34801561032f57600080fd5b5061030261033e366004613bef565b610ae3565b34801561034f57600080fd5b5061036361035e366004613c2b565b610b07565b604080516001600160a01b039093168352602083019190915201610235565b34801561038e57600080fd5b506102ab61039d366004613c07565b610c48565b3480156103ae57600080fd5b506103026103bd366004613bc4565b610c65565b3480156103ce57600080fd5b506102ab6103dd366004613c07565b610c78565b3480156103ee57600080fd5b506102ab610cf6565b6102ab610405366004613aa0565b610d8f565b34801561041657600080fd5b506102ab610425366004613bef565b610daa565b34801561043657600080fd5b50610302610445366004613bef565b610e79565b34801561045657600080fd5b506102ab610465366004613c84565b610e84565b34801561047657600080fd5b5060008051602061425e8339815191525460ff16610229565b34801561049b57600080fd5b506102806104aa366004613bef565b610eed565b3480156104bb57600080fd5b506103026104ca366004613a4c565b610ef8565b3480156104db57600080fd5b506102ab610f03565b3480156104f057600080fd5b50600080516020614350833981519152546001600160a01b0316610280565b34801561051b57600080fd5b5061028061052a366004613c2b565b610f98565b34801561053b57600080fd5b5061022961054a366004613c07565b610fbd565b6102ab61055d366004613b7b565b610fc9565b34801561056e57600080fd5b506102536112b1565b34801561058357600080fd5b506102ab610592366004613b4a565b6112d0565b6102ab6105a5366004613ae0565b6113b4565b3480156105b657600080fd5b506102536105c5366004613bef565b6113f8565b3480156105d657600080fd5b506103026105e5366004613bef565b611621565b3480156105f657600080fd5b5061060a610605366004613bef565b611645565b6040516102359190613efa565b34801561062357600080fd5b506102ab610632366004613c07565b6116ea565b34801561064357600080fd5b50610229610652366004613a68565b611707565b34801561066357600080fd5b506102ab610672366004613a4c565b611713565b6001600160e01b0319811660009081527f326d0c59a7612f6a9919e2a8ee333c80ba689d8ba2634de89c85cbb04832e705602052604081205460ff165b92915050565b606060008051602061431083398151915280546106d690614186565b80601f016020809104026020016040519081016040528092919081815260200182805461070290614186565b801561074f5780601f106107245761010080835404028352916020019161074f565b820191906000526020600020905b81548152906001019060200180831161073257829003601f168201915b5050505050905090565b60006106b4826117ab565b61076f828234611844565b600061077a82610eed565b9050806001600160a01b0316836001600160a01b031614156107ed5760405162461bcd60e51b815260206004820152602160248201527f4552433732313a20617070726f76616c20746f2063757272656e74206f776e656044820152603960f91b60648201526084015b60405180910390fd5b336001600160a01b038216148061080957506108098133611707565b61087b5760405162461bcd60e51b815260206004820152603860248201527f4552433732313a20617070726f76652063616c6c6572206973206e6f74206f7760448201527f6e6572206e6f7220617070726f76656420666f7220616c6c000000000000000060648201526084016107e4565b61088583836118a6565b505050565b600080516020614350833981519152546001600160a01b031633146108c15760405162461bcd60e51b81526004016107e490613f20565b610885838383611933565b7f09acf4e54214992e70883cf7dcd6957ff2c71cd9e14df4bec4383bc0d11607dc80546002141561093f5760405162461bcd60e51b815260206004820152601f60248201527f5265656e7472616e637947756172643a207265656e7472616e742063616c6c0060448201526064016107e4565b60028155338461094f82826119fd565b6109aa5760405162461bcd60e51b815260206004820152602660248201527f4372656174655061747465726e733a204f6e6c7920617070726f766564206f726044820152651037bbb732b960d11b60648201526084016107e4565b84848080601f01602080910402602001604051908101604052809392919081815260200183838082843760009201919091525050825115159150610a4a90505760405162461bcd60e51b815260206004820152602f60248201527f4372656174655061747465726e733a2073706563696669656420757269206d7560448201526e7374206265206e6f6e2d656d70747960881b60648201526084016107e4565b610a8a8787878080601f016020809104026020016040519081016040528093929190818152602001838380828437600092019190915250611acd92505050565b5050600190915550505050565b6000610aa1611af9565b905090565b610ab283838334611b12565b610abc33826119fd565b610ad85760405162461bcd60e51b81526004016107e490613f57565b610885838383611b7a565b600081815260008051602061437083398151915260205260408120600101546106b4565b600080807f2858d1f5380ecfc4e71d1c9f634bbcaafa6f5186664c05b776dfd6d2869a65ca6000868152602091825260408082208054825181860281018601909352808352919390929084015b82821015610ba357600084815260209081902060408051808201909152908401546001600160a01b0381168252600160a01b90046001600160601b031681830152825260019092019101610b54565b505050509050600081511115610c385780600081518110610bd457634e487b7160e01b600052603260045260246000fd5b60200260200101516000015161271082600081518110610c0457634e487b7160e01b600052603260045260246000fd5b6020026020010151602001516001600160601b031686610c24919061405a565b610c2e9190614046565b9250925050610c41565b60008092509250505b9250929050565b610c5182610ae3565b610c5b8133611d25565b6108858383611d89565b6000610c718383611db8565b9392505050565b6001600160a01b0381163314610ce85760405162461bcd60e51b815260206004820152602f60248201527f416363657373436f6e74726f6c3a2063616e206f6e6c792072656e6f756e636560448201526e103937b632b9903337b91039b2b63360891b60648201526084016107e4565b610cf28282611dd3565b5050565b610d207f65d7a28e3265b37a6474929f336521b332c1681b933f6cb9f3376673440d862a33610fbd565b610d855760405162461bcd60e51b815260206004820152603060248201527f4372656174655061747465726e733a206d75737420686176652070617573657260448201526f20726f6c6520746f20756e706175736560801b60648201526084016107e4565b610d8d611e02565b565b610885838383604051806020016040528060008152506113b4565b610db433826119fd565b610e195760405162461bcd60e51b815260206004820152603060248201527f4372656174655061747465726e733a2063616c6c6572206973206e6f74206f7760448201526f1b995c881b9bdc88185c1c1c9bdd995960821b60648201526084016107e4565b610e2281611eb5565b600081815260008051602061427e8339815191526020526040902080546000805160206143108339815191529190610e5990614186565b159050610cf25760008281526003820160205260408120610cf2916138ea565b60006106b482611f61565b600080516020614350833981519152546001600160a01b03163314610ebb5760405162461bcd60e51b81526004016107e490613f20565b8051610cf2907f99574a7094154bb123ae6ae102096f0bf9679b85a5cd1e727aaa0ae5f132e6b3906020840190613924565b60006106b482611f7b565b60006106b482611fe6565b610f2d7f65d7a28e3265b37a6474929f336521b332c1681b933f6cb9f3376673440d862a33610fbd565b610f905760405162461bcd60e51b815260206004820152602e60248201527f4372656174655061747465726e733a206d75737420686176652070617573657260448201526d20726f6c6520746f20706175736560901b60648201526084016107e4565b610d8d612091565b600082815260008051602061429e83398151915260205260408120610c719083612127565b6000610c718383612133565b336000610fdd610fd884614090565b61216b565b90506000610ff16060850160408601613a4c565b90507fa3c3de65100683c4b806c37290d05de4e5d4dbaf3a040452c4e31a5b677285666001600160a01b03808316908516146111ae573485606001351461106b5760405162461bcd60e51b815260206004820152600e60248201526d4e6f7420656e6f7567682077656960901b60448201526064016107e4565b428560800135116110a85760405162461bcd60e51b8152602060048201526007602482015266115e1c1a5c995960ca1b60448201526064016107e4565b60006110b760a0870187613fc0565b8080601f0160208091040260200160405190810160405280939291908181526020018383808284376000920191909152505060405192935050600284019161110191508390613dfd565b9081526040519081900360200190205460ff161561116d5760405162461bcd60e51b815260206004820152602360248201527f5369676e617475726520686173206265656e207265766f6b6564206279206f776044820152623732b960e91b60648201526084016107e4565b611178838583612213565b6001826002018260405161118c9190613dfd565b908152604051908190036020019020805491151560ff19909216919091179055505b6111d87f9f2df0fed2c77648de5860a4cc508cd0818c85b8b8a1ab4ceeef8d981c8956a683610fbd565b6112325760405162461bcd60e51b815260206004820152602560248201527f4372656174655061747465726e733a206d7573742068617665206d696e74657260448201526420726f6c6560d81b60648201526084016107e4565b600061123c825490565b9050611249878285612299565b8154600101825561125d81846103e8611933565b6112a88161126e6020890189613fc0565b8080601f016020809104026020016040519081016040528093929190818152602001838380828437600092019190915250611acd92505050565b50505050505050565b606060008051602061431083398151915260010180546106d690614186565b6001600160a01b0382163314156113295760405162461bcd60e51b815260206004820152601960248201527f4552433732313a20617070726f766520746f2063616c6c65720000000000000060448201526064016107e4565b3360008181527f3c7bf052874fa81625121783266a03507bd2cd48b16e571c01a04e8dd3fb07aa602090815260408083206001600160a01b03871680855290835292819020805460ff191686151590811790915590519081529192917f17307eab39ab6107e8899845ad3d59bd9653f200f220920489ca2b5937696c31910160405180910390a35050565b6113c084848434611b12565b6113ca33836119fd565b6113e65760405162461bcd60e51b81526004016107e490613f57565b6113f284848484612431565b50505050565b6060611414826000805160206142f08339815191525b906124af565b6114785760405162461bcd60e51b815260206004820152602f60248201527f4552433732314d657461646174613a2055524920717565727920666f72206e6f60448201526e3732bc34b9ba32b73a103a37b5b2b760891b60648201526084016107e4565b600082815260008051602061427e8339815191526020526040812080546000805160206143108339815191529291906114b090614186565b80601f01602080910402602001604051908101604052809291908181526020018280546114dc90614186565b80156115295780601f106114fe57610100808354040283529160200191611529565b820191906000526020600020905b81548152906001019060200180831161150c57829003601f168201915b50505050509050600082600201805461154190614186565b80601f016020809104026020016040519081016040528092919081815260200182805461156d90614186565b80156115ba5780601f1061158f576101008083540402835291602001916115ba565b820191906000526020600020905b81548152906001019060200180831161159d57829003601f168201915b505050505090508051600014156115d357509392505050565b8151156116065780826040516020016115ed929190613e19565b6040516020818303038152906040529350505050919050565b80611610866124bb565b6040516020016115ed929190613e19565b600081815260008051602061429e833981519152602052604081206106b4906125d5565b60607f2858d1f5380ecfc4e71d1c9f634bbcaafa6f5186664c05b776dfd6d2869a65ca6000838152602091825260408082208054825181860281018601909352808352919390929084015b828210156116df57600084815260209081902060408051808201909152908401546001600160a01b0381168252600160a01b90046001600160601b031681830152825260019092019101611690565b505050509050919050565b6116f382610ae3565b6116fd8133611d25565b6108858383611dd3565b6000610c7183836125df565b600080516020614350833981519152546001600160a01b0316331461174a5760405162461bcd60e51b81526004016107e490613f20565b60008051602061435083398151915280546001600160a01b0319166001600160a01b0383161790556040516001600160a01b0382169033907f8be0079c531659141344cd1fd0a4f28419497f9722a3daafe3b4186f6b6457e090600090a350565b60006000805160206142f08339815191526117c681846124af565b6118275760405162461bcd60e51b815260206004820152602c60248201527f4552433732313a20617070726f76656420717565727920666f72206e6f6e657860448201526b34b9ba32b73a103a37b5b2b760a11b60648201526084016107e4565b60009283526003016020525060409020546001600160a01b031690565b80156108855760405162461bcd60e51b815260206004820152602b60248201527f4552433732313a2070617961626c6520617070726f76652063616c6c73206e6f60448201526a1d081cdd5c1c1bdc9d195960aa1b60648201526084016107e4565b60008181527f3c7bf052874fa81625121783266a03507bd2cd48b16e571c01a04e8dd3fb07a96020526040902080546001600160a01b0319166001600160a01b03841690811790915581906118fa82611f7b565b6001600160a01b03167f8c5be1e5ebec7d5bd14f71427d1e84f3dd0314c0f7b2291e5b200ac8c7c3b92560405160405180910390a45050565b604080516001808252818301909252600091816020015b604080518082019091526000808252602082015281526020019060019003908161194a579050509050818160008151811061199557634e487b7160e01b600052603260045260246000fd5b6020026020010151602001906001600160601b031690816001600160601b03168152505082816000815181106119db57634e487b7160e01b600052603260045260246000fd5b60209081029190910101516001600160a01b0390911690526113f2848261262c565b6000611a17826000805160206142f083398151915261140e565b611a6f5760405162461bcd60e51b815260206004820152602360248201527f4552433732313a20717565727920666f72206e6f6e6578697374656e7420746f60448201526235b2b760e91b60648201526084016107e4565b6000611a7a83611f7b565b9050806001600160a01b0316846001600160a01b03161480611ab55750836001600160a01b0316611aaa846117ab565b6001600160a01b0316145b80611ac55750611ac581856125df565b949350505050565b600082815260008051602061427e83398151915260209081526040909120825161088592840190613924565b6000610aa16000805160206142f083398151915261289d565b8015611b755760405162461bcd60e51b815260206004820152602c60248201527f4552433732313a2070617961626c65207472616e736665722063616c6c73206e60448201526b1bdd081cdd5c1c1bdc9d195960a21b60648201526084016107e4565b6113f2565b826001600160a01b0316611b8d82611f7b565b6001600160a01b031614611bf55760405162461bcd60e51b815260206004820152602960248201527f4552433732313a207472616e73666572206f6620746f6b656e2074686174206960448201526839903737ba1037bbb760b91b60648201526084016107e4565b6001600160a01b038216611c575760405162461bcd60e51b8152602060048201526024808201527f4552433732313a207472616e7366657220746f20746865207a65726f206164646044820152637265737360e01b60648201526084016107e4565b611c628383836128a8565b611c6d6000826118a6565b6001600160a01b03831660009081527f3c7bf052874fa81625121783266a03507bd2cd48b16e571c01a04e8dd3fb07a8602052604090206000805160206142f083398151915290611cbe90836128b3565b506001600160a01b03831660009081526002820160205260409020611ce390836128bf565b50611cef8183856128cb565b5081836001600160a01b0316856001600160a01b031660008051602061433083398151915260405160405180910390a450505050565b611d2f8282612133565b610cf257611d47816001600160a01b031660146128e1565b611d528360206128e1565b604051602001611d63929190613e48565b60408051601f198184030181529082905262461bcd60e51b82526107e491600401613f0d565b611d938282612ac3565b600082815260008051602061429e833981519152602052604090206108859082612b39565b6000610c716000805160206142f08339815191528484612b4e565b611ddd8282612b72565b600082815260008051602061429e833981519152602052604090206108859082612be6565b60008051602061425e8339815191525460ff16611e585760405162461bcd60e51b815260206004820152601460248201527314185d5cd8589b194e881b9bdd081c185d5cd95960621b60448201526064016107e4565b60008051602061425e833981519152805460ff191690557f5db9ee0a495bf2e6ff9c91a7834c1ba4fdd244a5e8aa4e537bd38aeae4b073aa611e98612bfb565b6040516001600160a01b03909116815260200160405180910390a1565b6000611ec082611f7b565b9050611ece816000846128a8565b611ed96000836118a6565b6001600160a01b03811660009081527f3c7bf052874fa81625121783266a03507bd2cd48b16e571c01a04e8dd3fb07a8602052604090206000805160206142f083398151915290611f2a90846128b3565b50611f358184612c58565b5060405183906000906001600160a01b03851690600080516020614330833981519152908390a4505050565b60006106b46000805160206142f083398151915283612c64565b600080611f966000805160206142f083398151915284612c7a565b90506001600160a01b0381166106b45760405162461bcd60e51b815260206004820152601560248201527422a9219b99189d1034b73b30b634b21037bbb732b960591b60448201526064016107e4565b60006001600160a01b0382166120515760405162461bcd60e51b815260206004820152602a60248201527f4552433732313a2062616c616e636520717565727920666f7220746865207a65604482015269726f206164647265737360b01b60648201526084016107e4565b6001600160a01b03821660009081527f3c7bf052874fa81625121783266a03507bd2cd48b16e571c01a04e8dd3fb07a8602052604090206106b4906125d5565b60008051602061425e8339815191525460ff16156120e45760405162461bcd60e51b815260206004820152601060248201526f14185d5cd8589b194e881c185d5cd95960821b60448201526064016107e4565b60008051602061425e833981519152805460ff191660011790557f62e78cea01bee320cd4e420270b5ea74000d11b0c9f74754ebdbfc544b05a258611e98612bfb565b6000610c718383612c86565b6000918252600080516020614370833981519152602090815260408084206001600160a01b0393909316845291905290205460ff1690565b60007fc2ef533df83cd9f5b05c90b60c632e4bcbf5faad00cf9cf292aaf1bbb5e055f48260000151805190602001208360200151805190602001208460400151856060015186608001516040516020016121f696959493929190958652602086019490945260408501929092526001600160a01b03166060840152608083015260a082015260c00190565b604051602081830303815290604052805190602001209050919050565b600061221e83612d1a565b90506001600160a01b0384166122348284612d68565b6001600160a01b0316146040518060400160405280601c81526020017f7369676e617475726520766572696669636174696f6e206572726f7200000000815250906122925760405162461bcd60e51b81526004016107e49190613f0d565b5050505050565b6001600160a01b0383166122ef5760405162461bcd60e51b815260206004820181905260248201527f4552433732313a206d696e7420746f20746865207a65726f206164647265737360448201526064016107e4565b6000805160206142f083398151915261230881846124af565b156123555760405162461bcd60e51b815260206004820152601c60248201527f4552433732313a20746f6b656e20616c7265616479206d696e7465640000000060448201526064016107e4565b612361600085856128a8565b6001600160a01b0384166000908152600282016020526040902061238590846128bf565b506123918184866128cb565b50836001600160a01b0316826001600160a01b0316146124055760405183906001600160a01b03841690600090600080516020614330833981519152908290a482846001600160a01b0316836001600160a01b031660008051602061433083398151915260405160405180910390a46113f2565b60405183906001600160a01b03861690600090600080516020614330833981519152908290a450505050565b61243c848484611b7a565b61244884848484612d8c565b6113f25760405162461bcd60e51b815260206004820152603260248201527f4552433732313a207472616e7366657220746f206e6f6e20455243373231526560448201527131b2b4bb32b91034b6b83632b6b2b73a32b960711b60648201526084016107e4565b6000610c718383612e5d565b6060816124df5750506040805180820190915260018152600360fc1b602082015290565b8160005b811561250957806124f3816141c1565b91506125029050600a83614046565b91506124e3565b60008167ffffffffffffffff81111561253257634e487b7160e01b600052604160045260246000fd5b6040519080825280601f01601f19166020018201604052801561255c576020820181803683370190505b5090505b8415611ac557612571600183614079565b915061257e600a866141dc565b61258990603061402e565b60f81b8183815181106125ac57634e487b7160e01b600052603260045260246000fd5b60200101906001600160f81b031916908160001a9053506125ce600a86614046565b9450612560565b60006106b4825490565b6001600160a01b0391821660009081527f3c7bf052874fa81625121783266a03507bd2cd48b16e571c01a04e8dd3fb07aa6020908152604080832093909416825291909152205460ff1690565b6000805b82518110156128335760006001600160a01b031683828151811061266457634e487b7160e01b600052603260045260246000fd5b6020026020010151600001516001600160a01b031614156126c75760405162461bcd60e51b815260206004820152601b60248201527f526563697069656e742073686f756c642062652070726573656e74000000000060448201526064016107e4565b8281815181106126e757634e487b7160e01b600052603260045260246000fd5b6020026020010151602001516001600160601b03166000141561274c5760405162461bcd60e51b815260206004820181905260248201527f526f79616c74792076616c75652073686f756c6420626520706f73697469766560448201526064016107e4565b82818151811061276c57634e487b7160e01b600052603260045260246000fd5b6020026020010151602001516001600160601b03168261278c919061402e565b60008581527f2858d1f5380ecfc4e71d1c9f634bbcaafa6f5186664c05b776dfd6d2869a65ca602052604090208451919350908490839081106127df57634e487b7160e01b600052603260045260246000fd5b6020908102919091018101518254600181018455600093845292829020815191909201516001600160601b0316600160a01b026001600160a01b03909116179101558061282b816141c1565b915050612630565b5061271081106128935760405162461bcd60e51b815260206004820152602560248201527f526f79616c747920746f74616c2076616c75652073686f756c64206265203c20604482015264031303030360dc1b60648201526084016107e4565b6108858383612e75565b60006106b4826125d5565b610885838383612eb2565b6000610c718383612ebd565b6000610c718383612fd2565b6000611ac584846001600160a01b038516613021565b606060006128f083600261405a565b6128fb90600261402e565b67ffffffffffffffff81111561292157634e487b7160e01b600052604160045260246000fd5b6040519080825280601f01601f19166020018201604052801561294b576020820181803683370190505b509050600360fc1b8160008151811061297457634e487b7160e01b600052603260045260246000fd5b60200101906001600160f81b031916908160001a905350600f60fb1b816001815181106129b157634e487b7160e01b600052603260045260246000fd5b60200101906001600160f81b031916908160001a90535060006129d584600261405a565b6129e090600161402e565b90505b6001811115612a74576f181899199a1a9b1b9c1cb0b131b232b360811b85600f1660108110612a2257634e487b7160e01b600052603260045260246000fd5b1a60f81b828281518110612a4657634e487b7160e01b600052603260045260246000fd5b60200101906001600160f81b031916908160001a90535060049490941c93612a6d8161416f565b90506129e3565b508315610c715760405162461bcd60e51b815260206004820181905260248201527f537472696e67733a20686578206c656e67746820696e73756666696369656e7460448201526064016107e4565b612acd8282612133565b610cf2576000828152600080516020614370833981519152602090815260408083206001600160a01b0385168085529252808320805460ff1916600117905551339285917f2f8788117e7eff1d82e926ec794901d17c78024a50270940304540a733656f0d9190a45050565b6000610c71836001600160a01b038416612fd2565b6001600160a01b03821660009081526002840160205260408120611ac59083612127565b612b7c8282612133565b15610cf2576000828152600080516020614370833981519152602090815260408083206001600160a01b0385168085529252808320805460ff1916905551339285917ff6391f5c32d9c69d2a47ea670b442974b53935d1edc7fd64eb21e047a839171b9190a45050565b6000610c71836001600160a01b038416612ebd565b600033301415612c5257600080368080601f0160208091040260200160405190810160405280939291908181526020018383808284376000920191909152505050503601516001600160a01b03169150612c559050565b50335b90565b6000610c7183836130d0565b600080612c7184846131f9565b50949350505050565b6000610c718383613215565b81546000908210612ce45760405162461bcd60e51b815260206004820152602260248201527f456e756d657261626c655365743a20696e646578206f7574206f6620626f756e604482015261647360f01b60648201526084016107e4565b826000018281548110612d0757634e487b7160e01b600052603260045260246000fd5b9060005260206000200154905092915050565b60006106b4612d276132b8565b8360405161190160f01b6020820152602281018390526042810182905260009060620160405160208183030381529060405280519060200120905092915050565b6000806000612d778585613371565b91509150612d84816133de565b509392505050565b60006001600160a01b0384163b612da557506001611ac5565b6000612e2663150b7a0260e01b33888787604051602401612dc99493929190613ebd565b604051602081830303815290604052906001600160e01b0319166020820180516001600160e01b0383818316178352505050506040518060600160405280603281526020016142be603291396001600160a01b03881691906135e2565b9050600081806020019051810190612e3e9190613c68565b6001600160e01b031916630a85bd0160e11b1492505050949350505050565b60008181526001830160205260408120541515610c71565b7f3fa96d7b6bcbfe71ef171666d84db3cf52fa2d1c8afdb1cc8e486177f208b7df8282604051612ea6929190613fa7565b60405180910390a15050565b6108858383836135f1565b60008181526001830160205260408120548015612fc8576000612ee1600183614079565b85549091506000908690612ef790600190614079565b81548110612f1557634e487b7160e01b600052603260045260246000fd5b9060005260206000200154905080866000018381548110612f4657634e487b7160e01b600052603260045260246000fd5b600091825260209091200155612f5d82600161402e565b60008281526001880160205260409020558554869080612f8d57634e487b7160e01b600052603160045260246000fd5b6001900381819060005260206000200160009055905585600101600086815260200190815260200160002060009055600193505050506106b4565b60009150506106b4565b6000818152600183016020526040812054613019575081546001818101845560008481526020808220909301849055845484825282860190935260409020919091556106b4565b5060006106b4565b600082815260018401602052604081205480613086575050604080518082018252838152602080820184815286546001818101895560008981528481209551600290930290950191825591519082015586548684528188019092529290912055610c71565b8285613093600184614079565b815481106130b157634e487b7160e01b600052603260045260246000fd5b9060005260206000209060020201600101819055506000915050610c71565b60008181526001830160205260408120548015612fc85760006130f4600183614079565b8554909150600090869061310a90600190614079565b8154811061312857634e487b7160e01b600052603260045260246000fd5b906000526020600020906002020190508086600001838154811061315c57634e487b7160e01b600052603260045260246000fd5b6000918252602090912082546002909202019081556001918201549082015561318690839061402e565b8154600090815260018801602052604090205585548690806131b857634e487b7160e01b600052603160045260246000fd5b60008281526020808220600260001990940193840201828155600190810183905592909355878152888201909252604082209190915593506106b492505050565b60008080806132088686613623565b9097909650945050505050565b6000818152600183016020526040812054806132735760405162461bcd60e51b815260206004820152601e60248201527f456e756d657261626c654d61703a206e6f6e6578697374656e74206b6579000060448201526064016107e4565b8361327f600183614079565b8154811061329d57634e487b7160e01b600052603260045260246000fd5b90600052602060002090600202016001015491505092915050565b7f652b6e41b48d5fb182ea94fdf4a90b06fb0e8abbbd8f531a87702357378884fe546000907f652b6e41b48d5fb182ea94fdf4a90b06fb0e8abbbd8f531a87702357378884fd9046141561330c5754919050565b6133678160040154826002015483600301546040805160208101859052908101839052606081018290524660808201523060a082015260009060c0016040516020818303038152906040528051906020012090509392505050565b91505090565b5090565b6000808251604114156133a85760208301516040840151606085015160001a61339c878285856136ce565b94509450505050610c41565b8251604014156133d257602083015160408401516133c78683836137bb565b935093505050610c41565b50600090506002610c41565b600081600481111561340057634e487b7160e01b600052602160045260246000fd5b14156134095750565b600181600481111561342b57634e487b7160e01b600052602160045260246000fd5b14156134795760405162461bcd60e51b815260206004820152601860248201527f45434453413a20696e76616c6964207369676e6174757265000000000000000060448201526064016107e4565b600281600481111561349b57634e487b7160e01b600052602160045260246000fd5b14156134e95760405162461bcd60e51b815260206004820152601f60248201527f45434453413a20696e76616c6964207369676e6174757265206c656e6774680060448201526064016107e4565b600381600481111561350b57634e487b7160e01b600052602160045260246000fd5b14156135645760405162461bcd60e51b815260206004820152602260248201527f45434453413a20696e76616c6964207369676e6174757265202773272076616c604482015261756560f01b60648201526084016107e4565b600481600481111561358657634e487b7160e01b600052602160045260246000fd5b14156135df5760405162461bcd60e51b815260206004820152602260248201527f45434453413a20696e76616c6964207369676e6174757265202776272076616c604482015261756560f01b60648201526084016107e4565b50565b6060611ac584846000856137ea565b6001600160a01b03821661088557600081815260008051602061427e83398151915260205260408120610885916138ea565b8154600090819083106136835760405162461bcd60e51b815260206004820152602260248201527f456e756d657261626c654d61703a20696e646578206f7574206f6620626f756e604482015261647360f01b60648201526084016107e4565b60008460000184815481106136a857634e487b7160e01b600052603260045260246000fd5b906000526020600020906002020190508060000154816001015492509250509250929050565b6000807f7fffffffffffffffffffffffffffffff5d576e7357a4501ddfe92f46681b20a083111561370557506000905060036137b2565b8460ff16601b1415801561371d57508460ff16601c14155b1561372e57506000905060046137b2565b6040805160008082526020820180845289905260ff881692820192909252606081018690526080810185905260019060a0016020604051602081039080840390855afa158015613782573d6000803e3d6000fd5b5050604051601f1901519150506001600160a01b0381166137ab576000600192509250506137b2565b9150600090505b94509492505050565b6000806001600160ff1b03831660ff84901c601b016137dc878288856136ce565b935093505050935093915050565b6060843b61384e5760405162461bcd60e51b815260206004820152602b60248201527f416464726573735574696c733a2066756e6374696f6e2063616c6c20746f206e60448201526a1bdb8b58dbdb9d1c9858dd60aa1b60648201526084016107e4565b600080866001600160a01b0316858760405161386a9190613dfd565b60006040518083038185875af1925050503d80600081146138a7576040519150601f19603f3d011682016040523d82523d6000602084013e6138ac565b606091505b509150915081156138c0579150611ac59050565b8051156138d05780518082602001fd5b8360405162461bcd60e51b81526004016107e49190613f0d565b5080546138f690614186565b6000825580601f10613906575050565b601f0160209004906000526020600020908101906135df91906139a0565b82805461393090614186565b90600052602060002090601f0160209004810192826139525760008555613998565b82601f1061396b57805160ff1916838001178555613998565b82800160010185558215613998579182015b8281111561399857825182559160200191906001019061397d565b5061336d9291505b5b8082111561336d57600081556001016139a1565b80356139c081614232565b919050565b600082601f8301126139d5578081fd5b813567ffffffffffffffff808211156139f0576139f061421c565b604051601f8301601f19908116603f01168101908282118183101715613a1857613a1861421c565b81604052838152866020858801011115613a30578485fd5b8360208701602083013792830160200193909352509392505050565b600060208284031215613a5d578081fd5b8135610c7181614232565b60008060408385031215613a7a578081fd5b8235613a8581614232565b91506020830135613a9581614232565b809150509250929050565b600080600060608486031215613ab4578081fd5b8335613abf81614232565b92506020840135613acf81614232565b929592945050506040919091013590565b60008060008060808587031215613af5578081fd5b8435613b0081614232565b93506020850135613b1081614232565b925060408501359150606085013567ffffffffffffffff811115613b32578182fd5b613b3e878288016139c5565b91505092959194509250565b60008060408385031215613b5c578182fd5b8235613b6781614232565b915060208301358015158114613a95578182fd5b60008060408385031215613b8d578182fd5b8235613b9881614232565b9150602083013567ffffffffffffffff811115613bb3578182fd5b830160c08186031215613a95578182fd5b60008060408385031215613bd6578182fd5b8235613be181614232565b946020939093013593505050565b600060208284031215613c00578081fd5b5035919050565b60008060408385031215613c19578182fd5b823591506020830135613a9581614232565b60008060408385031215613c3d578182fd5b50508035926020909101359150565b600060208284031215613c5d578081fd5b8135610c7181614247565b600060208284031215613c79578081fd5b8151610c7181614247565b600060208284031215613c95578081fd5b813567ffffffffffffffff811115613cab578182fd5b611ac5848285016139c5565b600080600060608486031215613ccb578081fd5b833592506020840135613cdd81614232565b915060408401356001600160601b0381168114613cf8578182fd5b809150509250925092565b600080600060408486031215613d17578081fd5b83359250602084013567ffffffffffffffff80821115613d35578283fd5b818601915086601f830112613d48578283fd5b813581811115613d56578384fd5b876020828501011115613d67578384fd5b6020830194508093505050509250925092565b6000815180845260208085019450808401835b83811015613dc657815180516001600160a01b031688528301516001600160601b03168388015260409096019590820190600101613d8d565b509495945050505050565b60008151808452613de9816020860160208601614143565b601f01601f19169290920160200192915050565b60008251613e0f818460208701614143565b9190910192915050565b60008351613e2b818460208801614143565b835190830190613e3f818360208801614143565b01949350505050565b7f416363657373436f6e74726f6c3a206163636f756e7420000000000000000000815260008351613e80816017850160208801614143565b7001034b99036b4b9b9b4b733903937b6329607d1b6017918401918201528351613eb1816028840160208801614143565b01602801949350505050565b6001600160a01b0385811682528416602082015260408101839052608060608201819052600090613ef090830184613dd1565b9695505050505050565b602081526000610c716020830184613d7a565b602081526000610c716020830184613dd1565b6020808252601d908201527f4f776e61626c653a2073656e646572206d757374206265206f776e6572000000604082015260600190565b60208082526030908201527f4552433732313a207472616e736665722063616c6c6572206973206e6f74206f60408201526f1ddb995c881bdc88185c1c1c9bdd995960821b606082015260800190565b828152604060208201526000611ac56040830184613d7a565b6000808335601e19843603018112613fd6578283fd5b83018035915067ffffffffffffffff821115613ff0578283fd5b602001915036819003821315610c4157600080fd5b60405160c0810167ffffffffffffffff811182821017156140285761402861421c565b60405290565b60008219821115614041576140416141f0565b500190565b60008261405557614055614206565b500490565b6000816000190483118215151615614074576140746141f0565b500290565b60008282101561408b5761408b6141f0565b500390565b600060c082360312156140a1578081fd5b6140a9614005565b823567ffffffffffffffff808211156140c0578384fd5b6140cc368387016139c5565b835260208501359150808211156140e1578384fd5b6140ed368387016139c5565b60208401526140fe604086016139b5565b6040840152606085013560608401526080850135608084015260a085013591508082111561412a578384fd5b50614137368286016139c5565b60a08301525092915050565b60005b8381101561415e578181015183820152602001614146565b838111156113f25750506000910152565b60008161417e5761417e6141f0565b506000190190565b600181811c9082168061419a57607f821691505b602082108114156141bb57634e487b7160e01b600052602260045260246000fd5b50919050565b60006000198214156141d5576141d56141f0565b5060010190565b6000826141eb576141eb614206565b500690565b634e487b7160e01b600052601160045260246000fd5b634e487b7160e01b600052601260045260246000fd5b634e487b7160e01b600052604160045260246000fd5b6001600160a01b03811681146135df57600080fd5b6001600160e01b0319811681146135df57600080fdfebcc071db01f17b05ed4e21e0bc9844cd2f7ad7a440f8b0ef06f911f46516eefd99574a7094154bb123ae6ae102096f0bf9679b85a5cd1e727aaa0ae5f132e6b480056cf64dda58f25b3f0d01c84a1d87fa35fc7cd9e75613f98c5bce823c5fbe4552433732313a207472616e7366657220746f206e6f6e20455243373231526563656976657220696d706c656d656e7465723c7bf052874fa81625121783266a03507bd2cd48b16e571c01a04e8dd3fb07a699574a7094154bb123ae6ae102096f0bf9679b85a5cd1e727aaa0ae5f132e6b1ddf252ad1be2c89b69c2b068fc378daa952ba7f163c4a11628f55a4df523b3ef8a22373512790c48b83a1fe2efdd2888d4a917bcdc24d0adf63e60f6716804606891d55ec5f39745a8d2e578beced3b89c2702e96df8aac9e4f965508783ef2fa26469706673582212202b269de31f5069fb1938289471ec66012c4d21fd6f04aa3c86f412c2e3a0f89464736f6c63430008040033",
  "linkReferences": {},
  "deployedLinkReferences": {}
}